{
  "contractName": "DBIT",
  "abi": [
    {
      "inputs": [
        {
          "internalType": "address",
          "name": "governanceAddress",
          "type": "address"
        },
        {
          "internalType": "address",
          "name": "bankAddress",
          "type": "address"
        },
        {
          "internalType": "address",
          "name": "airdropAddress",
          "type": "address"
        },
        {
          "internalType": "address",
          "name": "exchangeAddress",
          "type": "address"
        }
      ],
      "stateMutability": "nonpayable",
      "type": "constructor"
    },
    {
      "anonymous": false,
      "inputs": [
        {
          "indexed": true,
          "internalType": "address",
          "name": "owner",
          "type": "address"
        },
        {
          "indexed": true,
          "internalType": "address",
          "name": "spender",
          "type": "address"
        },
        {
          "indexed": false,
          "internalType": "uint256",
          "name": "value",
          "type": "uint256"
        }
      ],
      "name": "Approval",
      "type": "event"
    },
    {
      "anonymous": false,
      "inputs": [
        {
          "indexed": true,
          "internalType": "address",
          "name": "from",
          "type": "address"
        },
        {
          "indexed": true,
          "internalType": "address",
          "name": "to",
          "type": "address"
        },
        {
          "indexed": false,
          "internalType": "uint256",
          "name": "value",
          "type": "uint256"
        }
      ],
      "name": "Transfer",
      "type": "event"
    },
    {
      "inputs": [
        {
          "internalType": "address",
          "name": "",
          "type": "address"
        }
      ],
      "name": "_airdropBalance",
      "outputs": [
        {
          "internalType": "uint256",
          "name": "",
          "type": "uint256"
        }
      ],
      "stateMutability": "view",
      "type": "function"
    },
    {
      "inputs": [
        {
          "internalType": "address",
          "name": "",
          "type": "address"
        }
      ],
      "name": "_allocatedBalance",
      "outputs": [
        {
          "internalType": "uint256",
          "name": "",
          "type": "uint256"
        }
      ],
      "stateMutability": "view",
      "type": "function"
    },
    {
      "inputs": [
        {
          "internalType": "address",
          "name": "",
          "type": "address"
        }
      ],
      "name": "_collateralisedBalance",
      "outputs": [
        {
          "internalType": "uint256",
          "name": "",
          "type": "uint256"
        }
      ],
      "stateMutability": "view",
      "type": "function"
    },
    {
      "inputs": [],
      "name": "airdropAddress",
      "outputs": [
        {
          "internalType": "address",
          "name": "",
          "type": "address"
        }
      ],
      "stateMutability": "view",
      "type": "function"
    },
    {
      "inputs": [
        {
          "internalType": "address",
          "name": "owner",
          "type": "address"
        },
        {
          "internalType": "address",
          "name": "spender",
          "type": "address"
        }
      ],
      "name": "allowance",
      "outputs": [
        {
          "internalType": "uint256",
          "name": "",
          "type": "uint256"
        }
      ],
      "stateMutability": "view",
      "type": "function"
    },
    {
      "inputs": [
        {
          "internalType": "address",
          "name": "spender",
          "type": "address"
        },
        {
          "internalType": "uint256",
          "name": "amount",
          "type": "uint256"
        }
      ],
      "name": "approve",
      "outputs": [
        {
          "internalType": "bool",
          "name": "",
          "type": "bool"
        }
      ],
      "stateMutability": "nonpayable",
      "type": "function"
    },
    {
      "inputs": [
        {
          "internalType": "address",
          "name": "account",
          "type": "address"
        }
      ],
      "name": "balanceOf",
      "outputs": [
        {
          "internalType": "uint256",
          "name": "",
          "type": "uint256"
        }
      ],
      "stateMutability": "view",
      "type": "function"
    },
    {
      "inputs": [],
      "name": "bankAddress",
      "outputs": [
        {
          "internalType": "address",
          "name": "",
          "type": "address"
        }
      ],
      "stateMutability": "view",
      "type": "function"
    },
    {
      "inputs": [],
      "name": "contractIsActive",
      "outputs": [
        {
          "internalType": "bool",
          "name": "",
          "type": "bool"
        }
      ],
      "stateMutability": "view",
      "type": "function"
    },
    {
      "inputs": [],
      "name": "decimals",
      "outputs": [
        {
          "internalType": "uint8",
          "name": "",
          "type": "uint8"
        }
      ],
      "stateMutability": "view",
      "type": "function"
    },
    {
      "inputs": [
        {
          "internalType": "address",
          "name": "spender",
          "type": "address"
        },
        {
          "internalType": "uint256",
          "name": "subtractedValue",
          "type": "uint256"
        }
      ],
      "name": "decreaseAllowance",
      "outputs": [
        {
          "internalType": "bool",
          "name": "",
          "type": "bool"
        }
      ],
      "stateMutability": "nonpayable",
      "type": "function"
    },
    {
      "inputs": [],
      "name": "exchangeAddress",
      "outputs": [
        {
          "internalType": "address",
          "name": "",
          "type": "address"
        }
      ],
      "stateMutability": "view",
      "type": "function"
    },
    {
      "inputs": [
        {
          "internalType": "address",
          "name": "_of",
          "type": "address"
        }
      ],
      "name": "getAirdropBalance",
      "outputs": [
        {
          "internalType": "uint256",
          "name": "",
          "type": "uint256"
        }
      ],
      "stateMutability": "view",
      "type": "function"
    },
    {
      "inputs": [
        {
          "internalType": "address",
          "name": "_of",
          "type": "address"
        }
      ],
      "name": "getAllocatedBalance",
      "outputs": [
        {
          "internalType": "uint256",
          "name": "",
          "type": "uint256"
        }
      ],
      "stateMutability": "view",
      "type": "function"
    },
    {
      "inputs": [
        {
          "internalType": "address",
          "name": "_of",
          "type": "address"
        }
      ],
      "name": "getCollateralisedBalance",
      "outputs": [
        {
          "internalType": "uint256",
          "name": "",
          "type": "uint256"
        }
      ],
      "stateMutability": "view",
      "type": "function"
    },
    {
      "inputs": [
        {
          "internalType": "address",
          "name": "account",
          "type": "address"
        }
      ],
      "name": "getLockedBalance",
      "outputs": [
        {
          "internalType": "uint256",
          "name": "_lockedBalance",
          "type": "uint256"
        }
      ],
      "stateMutability": "view",
      "type": "function"
    },
    {
      "inputs": [],
      "name": "getMaxAirdropSupply",
      "outputs": [
        {
          "internalType": "uint256",
          "name": "",
          "type": "uint256"
        }
      ],
      "stateMutability": "view",
      "type": "function"
    },
    {
      "inputs": [],
      "name": "getMaxAllocatedPercentage",
      "outputs": [
        {
          "internalType": "uint256",
          "name": "",
          "type": "uint256"
        }
      ],
      "stateMutability": "view",
      "type": "function"
    },
    {
      "inputs": [],
      "name": "getTotalAirdropSupply",
      "outputs": [
        {
          "internalType": "uint256",
          "name": "",
          "type": "uint256"
        }
      ],
      "stateMutability": "view",
      "type": "function"
    },
    {
      "inputs": [],
      "name": "getTotalAllocatedSupply",
      "outputs": [
        {
          "internalType": "uint256",
          "name": "",
          "type": "uint256"
        }
      ],
      "stateMutability": "view",
      "type": "function"
    },
    {
      "inputs": [
        {
          "internalType": "address",
          "name": "_of",
          "type": "address"
        }
      ],
      "name": "getTotalBalance",
      "outputs": [
        {
          "internalType": "uint256",
          "name": "",
          "type": "uint256"
        }
      ],
      "stateMutability": "view",
      "type": "function"
    },
    {
      "inputs": [],
      "name": "getTotalCollateralisedSupply",
      "outputs": [
        {
          "internalType": "uint256",
          "name": "",
          "type": "uint256"
        }
      ],
      "stateMutability": "view",
      "type": "function"
    },
    {
      "inputs": [
        {
          "internalType": "address",
          "name": "spender",
          "type": "address"
        },
        {
          "internalType": "uint256",
          "name": "addedValue",
          "type": "uint256"
        }
      ],
      "name": "increaseAllowance",
      "outputs": [
        {
          "internalType": "bool",
          "name": "",
          "type": "bool"
        }
      ],
      "stateMutability": "nonpayable",
      "type": "function"
    },
    {
      "inputs": [
        {
          "internalType": "address",
          "name": "_to",
          "type": "address"
        },
        {
          "internalType": "uint256",
          "name": "_amount",
          "type": "uint256"
        }
      ],
      "name": "mintAirdropSupply",
      "outputs": [],
      "stateMutability": "nonpayable",
      "type": "function"
    },
    {
      "inputs": [],
      "name": "name",
      "outputs": [
        {
          "internalType": "string",
          "name": "",
          "type": "string"
        }
      ],
      "stateMutability": "view",
      "type": "function"
    },
    {
      "inputs": [
        {
          "internalType": "address",
          "name": "_airdropAddress",
          "type": "address"
        }
      ],
      "name": "setAirdropAddress",
      "outputs": [],
      "stateMutability": "nonpayable",
      "type": "function"
    },
    {
      "inputs": [
        {
          "internalType": "address",
          "name": "_bankAddress",
          "type": "address"
        }
      ],
      "name": "setBankAddress",
      "outputs": [],
      "stateMutability": "nonpayable",
      "type": "function"
    },
    {
      "inputs": [
        {
          "internalType": "address",
          "name": "_exchangeAddress",
          "type": "address"
        }
      ],
      "name": "setExchangeAddress",
      "outputs": [],
      "stateMutability": "nonpayable",
      "type": "function"
    },
    {
      "inputs": [
        {
          "internalType": "bool",
          "name": "_isActive",
          "type": "bool"
        }
      ],
      "name": "setIsActive",
      "outputs": [],
      "stateMutability": "nonpayable",
      "type": "function"
    },
    {
      "inputs": [
        {
          "internalType": "uint256",
          "name": "new_supply",
          "type": "uint256"
        }
      ],
      "name": "setMaxAirdropSupply",
      "outputs": [
        {
          "internalType": "bool",
          "name": "",
          "type": "bool"
        }
      ],
      "stateMutability": "nonpayable",
      "type": "function"
    },
    {
      "inputs": [
        {
          "internalType": "uint256",
          "name": "newPercentage",
          "type": "uint256"
        }
      ],
      "name": "setMaxAllocationPercentage",
      "outputs": [
        {
          "internalType": "bool",
          "name": "",
          "type": "bool"
        }
      ],
      "stateMutability": "nonpayable",
      "type": "function"
    },
    {
      "inputs": [],
      "name": "symbol",
      "outputs": [
        {
          "internalType": "string",
          "name": "",
          "type": "string"
        }
      ],
      "stateMutability": "view",
      "type": "function"
    },
    {
      "inputs": [
        {
          "internalType": "address",
          "name": "_to",
          "type": "address"
        },
        {
          "internalType": "uint256",
          "name": "_amount",
          "type": "uint256"
        }
      ],
      "name": "mintCollateralisedSupply",
      "outputs": [],
      "stateMutability": "nonpayable",
      "type": "function"
    },
    {
      "inputs": [
        {
          "internalType": "address",
          "name": "_to",
          "type": "address"
        },
        {
          "internalType": "uint256",
          "name": "_amount",
          "type": "uint256"
        }
      ],
      "name": "mintAllocatedSupply",
      "outputs": [],
      "stateMutability": "nonpayable",
      "type": "function"
    },
    {
      "inputs": [],
      "name": "totalSupply",
      "outputs": [
        {
          "internalType": "uint256",
          "name": "",
          "type": "uint256"
        }
      ],
      "stateMutability": "view",
      "type": "function"
    },
    {
      "inputs": [
        {
          "internalType": "address",
          "name": "_to",
          "type": "address"
        },
        {
          "internalType": "uint256",
          "name": "_amount",
          "type": "uint256"
        }
      ],
      "name": "transfer",
      "outputs": [
        {
          "internalType": "bool",
          "name": "",
          "type": "bool"
        }
      ],
      "stateMutability": "nonpayable",
      "type": "function"
    },
    {
      "inputs": [
        {
          "internalType": "address",
          "name": "_from",
          "type": "address"
        },
        {
          "internalType": "address",
          "name": "_to",
          "type": "address"
        },
        {
          "internalType": "uint256",
          "name": "_amount",
          "type": "uint256"
        }
      ],
      "name": "transferFrom",
      "outputs": [
        {
          "internalType": "bool",
          "name": "",
          "type": "bool"
        }
      ],
      "stateMutability": "nonpayable",
      "type": "function"
    }
  ],
  "bytecode": "0x60806040523480156200001157600080fd5b5060405162001c4638038062001c46833981016040819052620000349162000133565b6040805180820182526004808252631110925560e21b602080840182905284518086019095529184529083015290838587856969e10de76676d08000006103e8838888600362000085838262000235565b50600462000094828262000235565b5050600580546001600160a81b0319166001600160a01b0393841617600160a01b17905550600680549782166001600160a01b03199889161790556007805496821696881696909617909555600991909155600a556008805491909316931692909217905550506000600b819055600c819055600d5550620003019350505050565b80516001600160a01b03811681146200012e57600080fd5b919050565b600080600080608085870312156200014a57600080fd5b620001558562000116565b9350620001656020860162000116565b9250620001756040860162000116565b9150620001856060860162000116565b905092959194509250565b634e487b7160e01b600052604160045260246000fd5b600181811c90821680620001bb57607f821691505b602082108103620001dc57634e487b7160e01b600052602260045260246000fd5b50919050565b601f8211156200023057600081815260208120601f850160051c810160208610156200020b5750805b601f850160051c820191505b818110156200022c5782815560010162000217565b5050505b505050565b81516001600160401b0381111562000251576200025162000190565b6200026981620002628454620001a6565b84620001e2565b602080601f831160018114620002a15760008415620002885750858301515b600019600386901b1c1916600185901b1785556200022c565b600085815260208120601f198616915b82811015620002d257888601518255948401946001909101908401620002b1565b5085821015620002f15787850151600019600388901b60f8161c191681555b5050505050600190811b01905550565b61193580620003116000396000f3fe608060405234801561001057600080fd5b50600436106102775760003560e01c806384413b6511610160578063ce7e0a35116100d8578063e441fd5c1161008c578063efa94d4911610071578063efa94d4914610582578063f716f9aa146105ab578063fc3c0eee146105be57600080fd5b8063e441fd5c1461054f578063eb29a2541461056f57600080fd5b8063d3d38193116100bd578063d3d38193146104fb578063d46e4bcd1461050e578063dd62ed3e1461051657600080fd5b8063ce7e0a35146104e0578063d082ea8c146104e857600080fd5b8063a9059cbb1161012f578063c2372c2d11610114578063c2372c2d14610491578063c4086893146104a4578063c958d876146104b757600080fd5b8063a9059cbb1461046b578063ab0eda9e1461047e57600080fd5b806384413b651461042a57806395d89b411461043d5780639cd0160514610445578063a457c2d71461045857600080fd5b806339509351116101f357806356944306116101c257806376b574e9116101a757806376b574e9146103ef5780637822ed49146103f75780637bb710d61461042257600080fd5b806356944306146103b357806370a08231146103c657600080fd5b80633950935114610344578063458765e2146103575780634a88f9ad146103805780634c66866f146103a057600080fd5b8063137d04ed1161024a57806323b872dd1161022f57806323b872dd1461030d5780632750fc7814610320578063313ce5671461033557600080fd5b8063137d04ed146102fd57806318160ddd1461030557600080fd5b806306fdde031461027c578063095ea7b31461029a57806309b396d6146102bd5780630d60ea19146102eb575b600080fd5b6102846105d1565b60405161029191906116fc565b60405180910390f35b6102ad6102a8366004611761565b610663565b6040519015158152602001610291565b6102dd6102cb36600461178b565b60106020526000908152604090205481565b604051908152602001610291565b600554600160a01b900460ff166102ad565b6009546102dd565b6102dd61067d565b6102ad61031b3660046117a6565b61068c565b61033361032e3660046117e2565b6106a1565b005b60405160128152602001610291565b6102ad610352366004611761565b610745565b6102dd61036536600461178b565b6001600160a01b03166000908152600f602052604090205490565b6102dd61038e36600461178b565b600f6020526000908152604090205481565b6102ad6103ae366004611804565b610784565b6103336103c1366004611761565b610873565b6102dd6103d436600461178b565b6001600160a01b031660009081526020819052604090205490565b600b546102dd565b60075461040a906001600160a01b031681565b6040516001600160a01b039091168152602001610291565b600d546102dd565b60065461040a906001600160a01b031681565b6102846108db565b60085461040a906001600160a01b031681565b6102ad610466366004611761565b6108ea565b6102ad610479366004611761565b61099f565b61033361048c36600461178b565b6109b2565b6102ad61049f366004611804565b610aa8565b6102dd6104b236600461178b565b610b91565b6102dd6104c536600461178b565b6001600160a01b031660009081526010602052604090205490565b600a546102dd565b6103336104f636600461178b565b610c1e565b6102dd61050936600461178b565b610d14565b600c546102dd565b6102dd61052436600461181d565b6001600160a01b03918216600090815260016020908152604080832093909416825291909152205490565b6102dd61055d36600461178b565b600e6020526000908152604090205481565b61033361057d366004611761565b610d56565b6102dd61059036600461178b565b6001600160a01b03166000908152600e602052604090205490565b6103336105b9366004611761565b610e43565b6103336105cc36600461178b565b610f71565b6060600380546105e090611850565b80601f016020809104026020016040519081016040528092919081815260200182805461060c90611850565b80156106595780601f1061062e57610100808354040283529160200191610659565b820191906000526020600020905b81548152906001019060200180831161063c57829003601f168201915b5050505050905090565b600033610671818585611067565b60019150505b92915050565b60006106876111bf565b905090565b60006106998484846111de565b949350505050565b6005546001600160a01b0316331461070c5760405162461bcd60e51b815260206004820152602360248201527f476f7665726e616e6365205265737472696374696f6e3a204e6f7420616c6c6f6044820152621dd95960ea1b60648201526084015b60405180910390fd5b60058054911515600160a01b027fffffffffffffffffffffff00ffffffffffffffffffffffffffffffffffffffff909216919091179055565b3360008181526001602090815260408083206001600160a01b0387168452909152812054909190610671908290869061077f9087906118a0565b611067565b6005546000906001600160a01b031633146107ed5760405162461bcd60e51b815260206004820152602360248201527f476f7665726e616e6365205265737472696374696f6e3a204e6f7420616c6c6f6044820152621dd95960ea1b6064820152608401610703565b600d548210156108655760405162461bcd60e51b815260206004820152603660248201527f41697264726f703a204d617820737570706c792063616e6e6f74206265206c6560448201527f7373207468616e2063757272656e7420737570706c79000000000000000000006064820152608401610703565b50600981905560015b919050565b6007546001600160a01b031633146108cd5760405162461bcd60e51b815260206004820152601f60248201527f4465626f6e64546f6b656e3a206f6e6c792042616e6b2043616c6c61626c65006044820152606401610703565b6108d78282611241565b5050565b6060600480546105e090611850565b3360008181526001602090815260408083206001600160a01b0387168452909152812054909190838110156109875760405162461bcd60e51b815260206004820152602560248201527f45524332303a2064656372656173656420616c6c6f77616e63652062656c6f7760448201527f207a65726f0000000000000000000000000000000000000000000000000000006064820152608401610703565b6109948286868403611067565b506001949350505050565b60006109ab8383611280565b9392505050565b6005546001600160a01b03163314610a185760405162461bcd60e51b815260206004820152602360248201527f476f7665726e616e6365205265737472696374696f6e3a204e6f7420616c6c6f6044820152621dd95960ea1b6064820152608401610703565b6001600160a01b038116610a795760405162461bcd60e51b815260206004820152602260248201527f4465626f6e64546f6b656e204572726f723a206164647265737320302067697660448201526132b760f11b6064820152608401610703565b6006805473ffffffffffffffffffffffffffffffffffffffff19166001600160a01b0392909216919091179055565b6005546000906001600160a01b03163314610b115760405162461bcd60e51b815260206004820152602360248201527f476f7665726e616e6365205265737472696374696f6e3a204e6f7420616c6c6f6044820152621dd95960ea1b6064820152608401610703565b6127108210610b885760405162461bcd60e51b815260206004820152603160248201527f416c6c6f636174696f6e3a2050657263656e746167652063616e6e6f7420676f60448201527f2061626f766520393939392050617274730000000000000000000000000000006064820152608401610703565b50600a55600190565b600080600b546005610ba391906118b3565b90506000600d546064610bb691906118b3565b90506000925081811115610c17576001600160a01b0384166000908152600e602052604090205460649082610beb85846118b3565b610bf591906118ca565b610c009060646118ec565b610c0a91906118b3565b610c1491906118ca565b92505b5050919050565b6005546001600160a01b03163314610c845760405162461bcd60e51b815260206004820152602360248201527f476f7665726e616e6365205265737472696374696f6e3a204e6f7420616c6c6f6044820152621dd95960ea1b6064820152608401610703565b6001600160a01b038116610ce55760405162461bcd60e51b815260206004820152602260248201527f4465626f6e64546f6b656e204572726f723a206164647265737320302067697660448201526132b760f11b6064820152608401610703565b6008805473ffffffffffffffffffffffffffffffffffffffff19166001600160a01b0392909216919091179055565b6001600160a01b038116600090815260106020908152604080832054600f835281842054600e909352908320549091610d4c916118a0565b61067791906118a0565b6005546001600160a01b03163314610dbc5760405162461bcd60e51b815260206004820152602360248201527f476f7665726e616e6365205265737472696374696f6e3a204e6f7420616c6c6f6044820152621dd95960ea1b6064820152608401610703565b600c54612710600a54610dcd61067d565b610dd791906118b3565b610de191906118ca565b610deb91906118ec565b8110610e395760405162461bcd60e51b815260206004820152600d60248201527f6c696d69742065786365656473000000000000000000000000000000000000006044820152606401610703565b6108d782826112ec565b6006546001600160a01b03163314610ec35760405162461bcd60e51b815260206004820152602260248201527f4465626f6e64546f6b656e3a206f6e6c792041697264726f702043616c6c616260448201527f6c650000000000000000000000000000000000000000000000000000000000006064820152608401610703565b60095481600d54610ed491906118a0565b1115610f225760405162461bcd60e51b815260206004820152601960248201527f65786365656473207468652061697264726f70206c696d6974000000000000006044820152606401610703565b80600d6000828254610f3491906118a0565b90915550506001600160a01b0382166000908152600e602052604081208054839290610f619084906118a0565b909155506108d79050828261132b565b6005546001600160a01b03163314610fd75760405162461bcd60e51b815260206004820152602360248201527f476f7665726e616e6365205265737472696374696f6e3a204e6f7420616c6c6f6044820152621dd95960ea1b6064820152608401610703565b6001600160a01b0381166110385760405162461bcd60e51b815260206004820152602260248201527f4465626f6e64546f6b656e204572726f723a206164647265737320302067697660448201526132b760f11b6064820152608401610703565b6007805473ffffffffffffffffffffffffffffffffffffffff19166001600160a01b0392909216919091179055565b6001600160a01b0383166110e25760405162461bcd60e51b8152602060048201526024808201527f45524332303a20617070726f76652066726f6d20746865207a65726f2061646460448201527f72657373000000000000000000000000000000000000000000000000000000006064820152608401610703565b6001600160a01b03821661115e5760405162461bcd60e51b815260206004820152602260248201527f45524332303a20617070726f766520746f20746865207a65726f20616464726560448201527f73730000000000000000000000000000000000000000000000000000000000006064820152608401610703565b6001600160a01b0383811660008181526001602090815260408083209487168084529482529182902085905590518481527f8c5be1e5ebec7d5bd14f71427d1e84f3dd0314c0f7b2291e5b200ac8c7c3b925910160405180910390a3505050565b6000600d54600c54600b546111d491906118a0565b61068791906118a0565b60006111ea848361140a565b6112365760405162461bcd60e51b815260206004820152601360248201527f696e73756666696369656e7420737570706c79000000000000000000000000006044820152606401610703565b610994848484611442565b80600b600082825461125391906118a0565b90915550506001600160a01b03821660009081526010602052604081208054839290610f619084906118a0565b600061128c338361140a565b6112d85760405162461bcd60e51b815260206004820152601360248201527f696e73756666696369656e7420737570706c79000000000000000000000000006044820152606401610703565b6112e3338484611457565b50600192915050565b80600c60008282546112fe91906118a0565b90915550506001600160a01b0382166000908152600f602052604081208054839290610f619084906118a0565b6001600160a01b0382166113815760405162461bcd60e51b815260206004820152601f60248201527f45524332303a206d696e7420746f20746865207a65726f2061646472657373006044820152606401610703565b806002600082825461139391906118a0565b90915550506001600160a01b038216600090815260208190526040812080548392906113c09084906118a0565b90915550506040518181526001600160a01b038316906000907fddf252ad1be2c89b69c2b068fc378daa952ba7f163c4a11628f55a4df523b3ef9060200160405180910390a35050565b60008161141684610b91565b6001600160a01b03851660009081526020819052604090205461143991906118ec565b10159392505050565b600033611450858285611670565b6109948585855b6001600160a01b0383166114d35760405162461bcd60e51b815260206004820152602560248201527f45524332303a207472616e736665722066726f6d20746865207a65726f20616460448201527f64726573730000000000000000000000000000000000000000000000000000006064820152608401610703565b6001600160a01b03821661154f5760405162461bcd60e51b815260206004820152602360248201527f45524332303a207472616e7366657220746f20746865207a65726f206164647260448201527f65737300000000000000000000000000000000000000000000000000000000006064820152608401610703565b6001600160a01b038316600090815260208190526040902054818110156115de5760405162461bcd60e51b815260206004820152602660248201527f45524332303a207472616e7366657220616d6f756e742065786365656473206260448201527f616c616e636500000000000000000000000000000000000000000000000000006064820152608401610703565b6001600160a01b038085166000908152602081905260408082208585039055918516815290812080548492906116159084906118a0565b92505081905550826001600160a01b0316846001600160a01b03167fddf252ad1be2c89b69c2b068fc378daa952ba7f163c4a11628f55a4df523b3ef8460405161166191815260200190565b60405180910390a35b50505050565b6001600160a01b03838116600090815260016020908152604080832093861683529290522054600019811461166a57818110156116ef5760405162461bcd60e51b815260206004820152601d60248201527f45524332303a20696e73756666696369656e7420616c6c6f77616e63650000006044820152606401610703565b61166a8484848403611067565b600060208083528351808285015260005b818110156117295785810183015185820160400152820161170d565b506000604082860101526040601f19601f8301168501019250505092915050565b80356001600160a01b038116811461086e57600080fd5b6000806040838503121561177457600080fd5b61177d8361174a565b946020939093013593505050565b60006020828403121561179d57600080fd5b6109ab8261174a565b6000806000606084860312156117bb57600080fd5b6117c48461174a565b92506117d26020850161174a565b9150604084013590509250925092565b6000602082840312156117f457600080fd5b813580151581146109ab57600080fd5b60006020828403121561181657600080fd5b5035919050565b6000806040838503121561183057600080fd5b6118398361174a565b91506118476020840161174a565b90509250929050565b600181811c9082168061186457607f821691505b60208210810361188457634e487b7160e01b600052602260045260246000fd5b50919050565b634e487b7160e01b600052601160045260246000fd5b808201808211156106775761067761188a565b80820281158282048414176106775761067761188a565b6000826118e757634e487b7160e01b600052601260045260246000fd5b500490565b818103818111156106775761067761188a56fea2646970667358221220bd990fc102bdb15a95babc44b659390d6cc830b8e23b556ca40d669fa86d850864736f6c63430008110033",
  "immutableReferences": {},
  "source": "pragma solidity ^0.8.0;\n\n// SPDX-License-Identifier: apache 2.0\n/*\n    Copyright 2022 Debond Protocol <info@debond.org>\n    Licensed under the Apache License, Version 2.0 (the \"License\");\n    you may not use this file except in compliance with the License.\n    You may obtain a copy of the License at\n    http://www.apache.org/licenses/LICENSE-2.0\n    Unless required by applicable law or agreed to in writing, software\n    distributed under the License is distributed on an \"AS IS\" BASIS,\n    WITHOUT WARRANTIES OR CONDITIONS OF ANY KIND, either express or implied.\n    See the License for the specific language governing permissions and\n    limitations under the License.\n*/\n\nimport \"./DebondToken.sol\";\n\ncontract DBIT is DebondToken {\n    constructor(\n        address governanceAddress,\n        address bankAddress,\n        address airdropAddress,\n        address exchangeAddress\n    )\n        DebondToken(\n            \"DBIT\",\n            \"DBIT\",\n            airdropAddress,\n            bankAddress,\n            governanceAddress,\n            exchangeAddress,\n            500_000 ether,\n            1000 // rate on 10000 (10%)\n        )\n    {}\n\n    function mintCollateralisedSupply(address _to, uint256 _amount)\n        external\n        onlyBank\n    {\n        _mintCollateralisedSupply(_to, _amount);\n    }\n\n    function mintAllocatedSupply(address _to, uint256 _amount)\n        external\n        onlyGovernance\n    {\n        require(\n            _amount <\n                (totalSupply() * _maxAllocationPercentage) /\n                    10000 -\n                    _allocatedSupply,\n            \"limit exceeds\"\n        );\n        _mintAllocatedSupply(_to, _amount);\n    }\n\n    function totalSupply() public view override(DebondToken) returns (uint256) {\n        return super.totalSupply();\n    }\n\n    function transfer(address _to, uint256 _amount)\n        public\n        override(DebondToken)\n        returns (bool)\n    {\n        return super.transfer(_to, _amount);\n    }\n\n    function transferFrom(\n        address _from,\n        address _to,\n        uint256 _amount\n    ) public override(DebondToken) returns (bool) {\n        return super.transferFrom(_from, _to, _amount);\n    }\n}\n",
  "sourcePath": "@debond-protocol/debond-token-contracts/DBIT.sol",
  "compiler": {
    "name": "solc",
    "version": "0.8.17+commit.8df45f5f.Emscripten.clang"
  },
  "schemaVersion": "3.4.9",
  "updatedAt": "2022-10-12T20:25:01.142Z",
  "devdoc": {
    "kind": "dev",
    "methods": {
      "allowance(address,address)": {
        "details": "See {IERC20-allowance}."
      },
      "approve(address,uint256)": {
        "details": "See {IERC20-approve}. NOTE: If `amount` is the maximum `uint256`, the allowance is not updated on `transferFrom`. This is semantically equivalent to an infinite approval. Requirements: - `spender` cannot be the zero address."
      },
      "balanceOf(address)": {
        "details": "See {IERC20-balanceOf}."
      },
      "decimals()": {
        "details": "Returns the number of decimals used to get its user representation. For example, if `decimals` equals `2`, a balance of `505` tokens should be displayed to a user as `5.05` (`505 / 10 ** 2`). Tokens usually opt for a value of 18, imitating the relationship between Ether and Wei. This is the value {ERC20} uses, unless this function is overridden; NOTE: This information is only used for _display_ purposes: it in no way affects any of the arithmetic of the contract, including {IERC20-balanceOf} and {IERC20-transfer}."
      },
      "decreaseAllowance(address,uint256)": {
        "details": "Atomically decreases the allowance granted to `spender` by the caller. This is an alternative to {approve} that can be used as a mitigation for problems described in {IERC20-approve}. Emits an {Approval} event indicating the updated allowance. Requirements: - `spender` cannot be the zero address. - `spender` must have allowance for the caller of at least `subtractedValue`."
      },
      "increaseAllowance(address,uint256)": {
        "details": "Atomically increases the allowance granted to `spender` by the caller. This is an alternative to {approve} that can be used as a mitigation for problems described in {IERC20-approve}. Emits an {Approval} event indicating the updated allowance. Requirements: - `spender` cannot be the zero address."
      },
      "name()": {
        "details": "Returns the name of the token."
      },
      "symbol()": {
        "details": "Returns the symbol of the token, usually a shorter version of the name."
      }
    },
    "version": 1
  },
  "userdoc": {
    "kind": "user",
    "methods": {},
    "version": 1
  }
}