{
  "contractName": "DNFT0",
  "abi": [
    {
      "inputs": [
        {
          "internalType": "address",
          "name": "_debondNFTTokenAddress",
          "type": "address"
        },
        {
          "internalType": "address",
          "name": "_dgovAddress",
          "type": "address"
        },
        {
          "internalType": "address",
          "name": "_governanceAddress",
          "type": "address"
        }
      ],
      "stateMutability": "nonpayable",
      "type": "constructor"
    },
    {
      "anonymous": false,
      "inputs": [
        {
          "indexed": true,
          "internalType": "address",
          "name": "owner",
          "type": "address"
        },
        {
          "indexed": true,
          "internalType": "address",
          "name": "approved",
          "type": "address"
        },
        {
          "indexed": true,
          "internalType": "uint256",
          "name": "tokenId",
          "type": "uint256"
        }
      ],
      "name": "Approval",
      "type": "event"
    },
    {
      "anonymous": false,
      "inputs": [
        {
          "indexed": true,
          "internalType": "address",
          "name": "owner",
          "type": "address"
        },
        {
          "indexed": true,
          "internalType": "address",
          "name": "operator",
          "type": "address"
        },
        {
          "indexed": false,
          "internalType": "bool",
          "name": "approved",
          "type": "bool"
        }
      ],
      "name": "ApprovalForAll",
      "type": "event"
    },
    {
      "anonymous": false,
      "inputs": [
        {
          "indexed": true,
          "internalType": "address",
          "name": "from",
          "type": "address"
        },
        {
          "indexed": true,
          "internalType": "address",
          "name": "to",
          "type": "address"
        },
        {
          "indexed": true,
          "internalType": "uint256",
          "name": "tokenId",
          "type": "uint256"
        }
      ],
      "name": "Transfer",
      "type": "event"
    },
    {
      "inputs": [
        {
          "internalType": "address",
          "name": "to",
          "type": "address"
        },
        {
          "internalType": "uint256",
          "name": "tokenId",
          "type": "uint256"
        }
      ],
      "name": "approve",
      "outputs": [],
      "stateMutability": "nonpayable",
      "type": "function"
    },
    {
      "inputs": [
        {
          "internalType": "address",
          "name": "owner",
          "type": "address"
        }
      ],
      "name": "balanceOf",
      "outputs": [
        {
          "internalType": "uint256",
          "name": "",
          "type": "uint256"
        }
      ],
      "stateMutability": "view",
      "type": "function"
    },
    {
      "inputs": [
        {
          "internalType": "uint256",
          "name": "tokenId",
          "type": "uint256"
        }
      ],
      "name": "getApproved",
      "outputs": [
        {
          "internalType": "address",
          "name": "",
          "type": "address"
        }
      ],
      "stateMutability": "view",
      "type": "function"
    },
    {
      "inputs": [
        {
          "internalType": "address",
          "name": "owner",
          "type": "address"
        },
        {
          "internalType": "address",
          "name": "operator",
          "type": "address"
        }
      ],
      "name": "isApprovedForAll",
      "outputs": [
        {
          "internalType": "bool",
          "name": "",
          "type": "bool"
        }
      ],
      "stateMutability": "view",
      "type": "function"
    },
    {
      "inputs": [],
      "name": "name",
      "outputs": [
        {
          "internalType": "string",
          "name": "",
          "type": "string"
        }
      ],
      "stateMutability": "view",
      "type": "function"
    },
    {
      "inputs": [
        {
          "internalType": "uint256",
          "name": "tokenId",
          "type": "uint256"
        }
      ],
      "name": "ownerOf",
      "outputs": [
        {
          "internalType": "address",
          "name": "",
          "type": "address"
        }
      ],
      "stateMutability": "view",
      "type": "function"
    },
    {
      "inputs": [
        {
          "internalType": "address",
          "name": "from",
          "type": "address"
        },
        {
          "internalType": "address",
          "name": "to",
          "type": "address"
        },
        {
          "internalType": "uint256",
          "name": "tokenId",
          "type": "uint256"
        }
      ],
      "name": "safeTransferFrom",
      "outputs": [],
      "stateMutability": "nonpayable",
      "type": "function"
    },
    {
      "inputs": [
        {
          "internalType": "address",
          "name": "from",
          "type": "address"
        },
        {
          "internalType": "address",
          "name": "to",
          "type": "address"
        },
        {
          "internalType": "uint256",
          "name": "tokenId",
          "type": "uint256"
        },
        {
          "internalType": "bytes",
          "name": "data",
          "type": "bytes"
        }
      ],
      "name": "safeTransferFrom",
      "outputs": [],
      "stateMutability": "nonpayable",
      "type": "function"
    },
    {
      "inputs": [
        {
          "internalType": "address",
          "name": "operator",
          "type": "address"
        },
        {
          "internalType": "bool",
          "name": "approved",
          "type": "bool"
        }
      ],
      "name": "setApprovalForAll",
      "outputs": [],
      "stateMutability": "nonpayable",
      "type": "function"
    },
    {
      "inputs": [
        {
          "internalType": "bytes4",
          "name": "interfaceId",
          "type": "bytes4"
        }
      ],
      "name": "supportsInterface",
      "outputs": [
        {
          "internalType": "bool",
          "name": "",
          "type": "bool"
        }
      ],
      "stateMutability": "view",
      "type": "function"
    },
    {
      "inputs": [],
      "name": "symbol",
      "outputs": [
        {
          "internalType": "string",
          "name": "",
          "type": "string"
        }
      ],
      "stateMutability": "view",
      "type": "function"
    },
    {
      "inputs": [
        {
          "internalType": "uint256",
          "name": "tokenId",
          "type": "uint256"
        }
      ],
      "name": "tokenURI",
      "outputs": [
        {
          "internalType": "string",
          "name": "",
          "type": "string"
        }
      ],
      "stateMutability": "view",
      "type": "function"
    },
    {
      "inputs": [
        {
          "internalType": "address",
          "name": "from",
          "type": "address"
        },
        {
          "internalType": "address",
          "name": "to",
          "type": "address"
        },
        {
          "internalType": "uint256",
          "name": "tokenId",
          "type": "uint256"
        }
      ],
      "name": "transferFrom",
      "outputs": [],
      "stateMutability": "nonpayable",
      "type": "function"
    },
    {
      "inputs": [
        {
          "internalType": "address",
          "name": "to",
          "type": "address"
        }
      ],
      "name": "mint",
      "outputs": [],
      "stateMutability": "nonpayable",
      "type": "function"
    },
    {
      "inputs": [
        {
          "internalType": "uint256",
          "name": "id",
          "type": "uint256"
        }
      ],
      "name": "burn",
      "outputs": [],
      "stateMutability": "nonpayable",
      "type": "function"
    },
    {
      "inputs": [
        {
          "internalType": "uint256",
          "name": "amount",
          "type": "uint256"
        },
        {
          "internalType": "address",
          "name": "_to",
          "type": "address"
        }
      ],
      "name": "reveal",
      "outputs": [],
      "stateMutability": "nonpayable",
      "type": "function"
    },
    {
      "inputs": [
        {
          "internalType": "uint256",
          "name": "amount",
          "type": "uint256"
        },
        {
          "internalType": "address",
          "name": "_to",
          "type": "address"
        }
      ],
      "name": "forge",
      "outputs": [],
      "stateMutability": "nonpayable",
      "type": "function"
    }
  ],
  "bytecode": "0x60a06040526127106009553480156200001757600080fd5b5060405162001c2738038062001c278339810160408190526200003a91620000f0565b60405180604001604052806005815260200164111093d39160da1b8152506040518060400160405280600381526020016211109160ea1b8152508160009081620000859190620001df565b506001620000948282620001df565b5050600680546001600160a01b03199081166001600160a01b0396871617909155600780549091169385169390931790925590911660805250620002ab565b80516001600160a01b0381168114620000eb57600080fd5b919050565b6000806000606084860312156200010657600080fd5b6200011184620000d3565b92506200012160208501620000d3565b91506200013160408501620000d3565b90509250925092565b634e487b7160e01b600052604160045260246000fd5b600181811c908216806200016557607f821691505b6020821081036200018657634e487b7160e01b600052602260045260246000fd5b50919050565b601f821115620001da57600081815260208120601f850160051c81016020861015620001b55750805b601f850160051c820191505b81811015620001d657828155600101620001c1565b5050505b505050565b81516001600160401b03811115620001fb57620001fb6200013a565b62000213816200020c845462000150565b846200018c565b602080601f8311600181146200024b5760008415620002325750858301515b600019600386901b1c1916600185901b178555620001d6565b600085815260208120601f198616915b828110156200027c578886015182559484019460019091019084016200025b565b50858210156200029b5787850151600019600388901b60f8161c191681555b5050505050600190811b01905550565b608051611959620002ce6000396000818161063a01526106e101526119596000f3fe608060405234801561001057600080fd5b506004361061011b5760003560e01c80636a627842116100b2578063b58839f511610081578063bfb70e0411610066578063bfb70e041461025e578063c87b56dd14610271578063e985e9c51461028457600080fd5b8063b58839f514610238578063b88d4fde1461024b57600080fd5b80636a627842146101e957806370a08231146101fc57806395d89b411461021d578063a22cb4651461022557600080fd5b806323b872dd116100ee57806323b872dd1461019d57806342842e0e146101b057806342966c68146101c35780636352211e146101d657600080fd5b806301ffc9a71461012057806306fdde0314610148578063081812fc1461015d578063095ea7b314610188575b600080fd5b61013361012e3660046114c1565b6102c0565b60405190151581526020015b60405180910390f35b61015061035d565b60405161013f919061152e565b61017061016b366004611541565b6103ef565b6040516001600160a01b03909116815260200161013f565b61019b610196366004611576565b610416565b005b61019b6101ab3660046115a0565b61056a565b61019b6101be3660046115a0565b6105f1565b61019b6101d1366004611541565b61060c565b6101706101e4366004611541565b610671565b61019b6101f73660046115dc565b6106d6565b61020f61020a3660046115dc565b610772565b60405190815260200161013f565b61015061080c565b61019b610233366004611605565b61081b565b61019b61024636600461163c565b61082a565b61019b61025936600461167e565b610922565b61019b61026c36600461163c565b6109b0565b61015061027f366004611541565b610aa3565b61013361029236600461175a565b6001600160a01b03918216600090815260056020908152604080832093909416825291909152205460ff1690565b60006001600160e01b031982167f80ac58cd00000000000000000000000000000000000000000000000000000000148061032357506001600160e01b031982167f5b5e139f00000000000000000000000000000000000000000000000000000000145b8061035757507f01ffc9a7000000000000000000000000000000000000000000000000000000006001600160e01b03198316145b92915050565b60606000805461036c90611784565b80601f016020809104026020016040519081016040528092919081815260200182805461039890611784565b80156103e55780601f106103ba576101008083540402835291602001916103e5565b820191906000526020600020905b8154815290600101906020018083116103c857829003601f168201915b5050505050905090565b60006103fa82610b17565b506000908152600460205260409020546001600160a01b031690565b600061042182610671565b9050806001600160a01b0316836001600160a01b0316036104af5760405162461bcd60e51b815260206004820152602160248201527f4552433732313a20617070726f76616c20746f2063757272656e74206f776e6560448201527f720000000000000000000000000000000000000000000000000000000000000060648201526084015b60405180910390fd5b336001600160a01b03821614806104e957506001600160a01b038116600090815260056020908152604080832033845290915290205460ff165b61055b5760405162461bcd60e51b815260206004820152603e60248201527f4552433732313a20617070726f76652063616c6c6572206973206e6f7420746f60448201527f6b656e206f776e6572206e6f7220617070726f76656420666f7220616c6c000060648201526084016104a6565b6105658383610b7b565b505050565b6105743382610bf6565b6105e65760405162461bcd60e51b815260206004820152602e60248201527f4552433732313a2063616c6c6572206973206e6f7420746f6b656e206f776e6560448201527f72206e6f7220617070726f76656400000000000000000000000000000000000060648201526084016104a6565b610565838383610c75565b61056583838360405180602001604052806000815250610922565b61061581610671565b6001600160a01b0316336001600160a01b0316148061065c5750336001600160a01b037f000000000000000000000000000000000000000000000000000000000000000016145b61066557600080fd5b61066e81610e4f565b50565b6000818152600260205260408120546001600160a01b0316806103575760405162461bcd60e51b815260206004820152601860248201527f4552433732313a20696e76616c696420746f6b656e204944000000000000000060448201526064016104a6565b336001600160a01b037f0000000000000000000000000000000000000000000000000000000000000000161461074e5760405162461bcd60e51b815260206004820152601060248201527f476f763a204e656564207269676874730000000000000000000000000000000060448201526064016104a6565b61075a81600a54610ef7565b600a805490600061076a836117d4565b919050555050565b60006001600160a01b0382166107f05760405162461bcd60e51b815260206004820152602960248201527f4552433732313a2061646472657373207a65726f206973206e6f74206120766160448201527f6c6964206f776e6572000000000000000000000000000000000000000000000060648201526084016104a6565b506001600160a01b031660009081526003602052604090205490565b60606001805461036c90611784565b610826338383610f11565b5050565b60095482600a5461083b91906117ed565b1061084557600080fd5b6007546001600160a01b031663a9059cbb3361086985670de0b6b3a7640000611800565b6040516001600160e01b031960e085901b1681526001600160a01b03909216600483015260248201526044016020604051808303816000875af11580156108b4573d6000803e3d6000fd5b505050506040513d601f19601f820116820180604052508101906108d89190611817565b5060005b6108e7600184611834565b811015610565576108fa82600a54610ef7565b600a805490600061090a836117d4565b9190505550808061091a906117d4565b9150506108dc565b61092c3383610bf6565b61099e5760405162461bcd60e51b815260206004820152602e60248201527f4552433732313a2063616c6c6572206973206e6f7420746f6b656e206f776e6560448201527f72206e6f7220617070726f76656400000000000000000000000000000000000060648201526084016104a6565b6109aa84848484610fdf565b50505050565b60095482600a546109c191906117ed565b106109cb57600080fd5b6006546040517fa9059cbb000000000000000000000000000000000000000000000000000000008152336004820152602481018490526001600160a01b039091169063a9059cbb906044016020604051808303816000875af1158015610a35573d6000803e3d6000fd5b505050506040513d601f19601f82011682018060405250810190610a599190611817565b5060005b610a68600184611834565b81101561056557610a7b82600a54610ef7565b600a8054906000610a8b836117d4565b91905055508080610a9b906117d4565b915050610a5d565b6060610aae82610b17565b6000610ac560408051602081019091526000815290565b90506000815111610ae55760405180602001604052806000815250610b10565b80610aef8461105d565b604051602001610b00929190611847565b6040516020818303038152906040525b9392505050565b6000818152600260205260409020546001600160a01b031661066e5760405162461bcd60e51b815260206004820152601860248201527f4552433732313a20696e76616c696420746f6b656e204944000000000000000060448201526064016104a6565b6000818152600460205260409020805473ffffffffffffffffffffffffffffffffffffffff19166001600160a01b0384169081179091558190610bbd82610671565b6001600160a01b03167f8c5be1e5ebec7d5bd14f71427d1e84f3dd0314c0f7b2291e5b200ac8c7c3b92560405160405180910390a45050565b600080610c0283610671565b9050806001600160a01b0316846001600160a01b03161480610c4957506001600160a01b0380821660009081526005602090815260408083209388168352929052205460ff165b80610c6d5750836001600160a01b0316610c62846103ef565b6001600160a01b0316145b949350505050565b826001600160a01b0316610c8882610671565b6001600160a01b031614610d045760405162461bcd60e51b815260206004820152602560248201527f4552433732313a207472616e736665722066726f6d20696e636f72726563742060448201527f6f776e657200000000000000000000000000000000000000000000000000000060648201526084016104a6565b6001600160a01b038216610d7f5760405162461bcd60e51b8152602060048201526024808201527f4552433732313a207472616e7366657220746f20746865207a65726f2061646460448201527f726573730000000000000000000000000000000000000000000000000000000060648201526084016104a6565b610d8a600082610b7b565b6001600160a01b0383166000908152600360205260408120805460019290610db3908490611834565b90915550506001600160a01b0382166000908152600360205260408120805460019290610de19084906117ed565b9091555050600081815260026020526040808220805473ffffffffffffffffffffffffffffffffffffffff19166001600160a01b0386811691821790925591518493918716917fddf252ad1be2c89b69c2b068fc378daa952ba7f163c4a11628f55a4df523b3ef91a4505050565b6000610e5a82610671565b9050610e67600083610b7b565b6001600160a01b0381166000908152600360205260408120805460019290610e90908490611834565b9091555050600082815260026020526040808220805473ffffffffffffffffffffffffffffffffffffffff19169055518391906001600160a01b038416907fddf252ad1be2c89b69c2b068fc378daa952ba7f163c4a11628f55a4df523b3ef908390a45050565b610826828260405180602001604052806000815250611192565b816001600160a01b0316836001600160a01b031603610f725760405162461bcd60e51b815260206004820152601960248201527f4552433732313a20617070726f766520746f2063616c6c65720000000000000060448201526064016104a6565b6001600160a01b03838116600081815260056020908152604080832094871680845294825291829020805460ff191686151590811790915591519182527f17307eab39ab6107e8899845ad3d59bd9653f200f220920489ca2b5937696c31910160405180910390a3505050565b610fea848484610c75565b610ff684848484611210565b6109aa5760405162461bcd60e51b815260206004820152603260248201527f4552433732313a207472616e7366657220746f206e6f6e20455243373231526560448201527131b2b4bb32b91034b6b83632b6b2b73a32b960711b60648201526084016104a6565b6060816000036110a057505060408051808201909152600181527f3000000000000000000000000000000000000000000000000000000000000000602082015290565b8160005b81156110ca57806110b4816117d4565b91506110c39050600a8361188c565b91506110a4565b60008167ffffffffffffffff8111156110e5576110e5611668565b6040519080825280601f01601f19166020018201604052801561110f576020820181803683370190505b5090505b8415610c6d57611124600183611834565b9150611131600a866118a0565b61113c9060306117ed565b60f81b818381518110611151576111516118b4565b60200101907effffffffffffffffffffffffffffffffffffffffffffffffffffffffffffff1916908160001a90535061118b600a8661188c565b9450611113565b61119c838361135c565b6111a96000848484611210565b6105655760405162461bcd60e51b815260206004820152603260248201527f4552433732313a207472616e7366657220746f206e6f6e20455243373231526560448201527131b2b4bb32b91034b6b83632b6b2b73a32b960711b60648201526084016104a6565b60006001600160a01b0384163b1561135157604051630a85bd0160e11b81526001600160a01b0385169063150b7a02906112549033908990889088906004016118ca565b6020604051808303816000875af192505050801561128f575060408051601f3d908101601f1916820190925261128c91810190611906565b60015b611337573d8080156112bd576040519150601f19603f3d011682016040523d82523d6000602084013e6112c2565b606091505b50805160000361132f5760405162461bcd60e51b815260206004820152603260248201527f4552433732313a207472616e7366657220746f206e6f6e20455243373231526560448201527131b2b4bb32b91034b6b83632b6b2b73a32b960711b60648201526084016104a6565b805181602001fd5b6001600160e01b031916630a85bd0160e11b149050610c6d565b506001949350505050565b6001600160a01b0382166113b25760405162461bcd60e51b815260206004820181905260248201527f4552433732313a206d696e7420746f20746865207a65726f206164647265737360448201526064016104a6565b6000818152600260205260409020546001600160a01b0316156114175760405162461bcd60e51b815260206004820152601c60248201527f4552433732313a20746f6b656e20616c7265616479206d696e7465640000000060448201526064016104a6565b6001600160a01b03821660009081526003602052604081208054600192906114409084906117ed565b9091555050600081815260026020526040808220805473ffffffffffffffffffffffffffffffffffffffff19166001600160a01b03861690811790915590518392907fddf252ad1be2c89b69c2b068fc378daa952ba7f163c4a11628f55a4df523b3ef908290a45050565b6001600160e01b03198116811461066e57600080fd5b6000602082840312156114d357600080fd5b8135610b10816114ab565b60005b838110156114f95781810151838201526020016114e1565b50506000910152565b6000815180845261151a8160208601602086016114de565b601f01601f19169290920160200192915050565b602081526000610b106020830184611502565b60006020828403121561155357600080fd5b5035919050565b80356001600160a01b038116811461157157600080fd5b919050565b6000806040838503121561158957600080fd5b6115928361155a565b946020939093013593505050565b6000806000606084860312156115b557600080fd5b6115be8461155a565b92506115cc6020850161155a565b9150604084013590509250925092565b6000602082840312156115ee57600080fd5b610b108261155a565b801515811461066e57600080fd5b6000806040838503121561161857600080fd5b6116218361155a565b91506020830135611631816115f7565b809150509250929050565b6000806040838503121561164f57600080fd5b8235915061165f6020840161155a565b90509250929050565b634e487b7160e01b600052604160045260246000fd5b6000806000806080858703121561169457600080fd5b61169d8561155a565b93506116ab6020860161155a565b925060408501359150606085013567ffffffffffffffff808211156116cf57600080fd5b818701915087601f8301126116e357600080fd5b8135818111156116f5576116f5611668565b604051601f8201601f19908116603f0116810190838211818310171561171d5761171d611668565b816040528281528a602084870101111561173657600080fd5b82602086016020830137600060208483010152809550505050505092959194509250565b6000806040838503121561176d57600080fd5b6117768361155a565b915061165f6020840161155a565b600181811c9082168061179857607f821691505b6020821081036117b857634e487b7160e01b600052602260045260246000fd5b50919050565b634e487b7160e01b600052601160045260246000fd5b6000600182016117e6576117e66117be565b5060010190565b80820180821115610357576103576117be565b8082028115828204841417610357576103576117be565b60006020828403121561182957600080fd5b8151610b10816115f7565b81810381811115610357576103576117be565b600083516118598184602088016114de565b83519083019061186d8183602088016114de565b01949350505050565b634e487b7160e01b600052601260045260246000fd5b60008261189b5761189b611876565b500490565b6000826118af576118af611876565b500690565b634e487b7160e01b600052603260045260246000fd5b60006001600160a01b038087168352808616602084015250836040830152608060608301526118fc6080830184611502565b9695505050505050565b60006020828403121561191857600080fd5b8151610b10816114ab56fea26469706673582212203fbbda433d80f707b120b1bd68d428ce2df9b2f8cf25948506a8b146e3bf110564736f6c63430008110033",
  "immutableReferences": {
    "3988": [
      {
        "length": 32,
        "start": 1594
      },
      {
        "length": 32,
        "start": 1761
      }
    ]
  },
  "source": "pragma solidity ^0.8.0;\n\n// SPDX-License-Identifier: apache 2.0\n/*\n    Copyright 2022 Debond Protocol <info@debond.org>\n    Licensed under the Apache License, Version 2.0 (the \"License\");\n    you may not use this file except in compliance with the License.\n    You may obtain a copy of the License at\n    http://www.apache.org/licenses/LICENSE-2.0\n    Unless required by applicable law or agreed to in writing, software\n    distributed under the License is distributed on an \"AS IS\" BASIS,\n    WITHOUT WARRANTIES OR CONDITIONS OF ANY KIND, either express or implied.\n    See the License for the specific language governing permissions and\n    limitations under the License.\n*/\n\nimport \"@openzeppelin/contracts/token/ERC721/ERC721.sol\";\nimport \"@openzeppelin/contracts/token/ERC20/IERC20.sol\";\nimport \"./RandomNumber.sol\";\nimport \"./interfaces/IDNFT.sol\";\n\n\n//todo : grammaire( _ internal, majuscules etc), commentaires\n\ncontract DNFT0 is ERC721{\n\n    address immutable governanceAddress;\n    address debondNFTTokenAddress;\n    address dgovAddress;\n    address dnft2;\n\n    constructor(address _debondNFTTokenAddress, address _dgovAddress, address _governanceAddress)  ERC721(\"DBOND\", \"DBD\") {\n        debondNFTTokenAddress = _debondNFTTokenAddress;\n        dgovAddress = _dgovAddress;\n        governanceAddress = _governanceAddress;\n    }\n\n    modifier onlyGov {\n        require(msg.sender == governanceAddress, \"Gov: Need rights\");\n        _;\n    } \n\n    function mint(address to) external onlyGov {\n        _safeMint(to, counter);\n        counter++;\n    }\n\n    function burn(uint id) external {\n        require(msg.sender == ownerOf(id) || msg.sender == governanceAddress);\n        _burn(id);\n    }\n\n    \n\n    uint maxNftNumber = 10000;\n    uint counter;\n\n    \n\n    function reveal(uint amount, address _to) external {\n        require(counter + amount < maxNftNumber);\n        IERC20(debondNFTTokenAddress).transfer(msg.sender, amount); //safeTransfer\n        for (uint i; i < amount - 1; i++) {\n            _safeMint(_to, counter);\n            counter ++;\n        }\n\n    }\n\n    function forge(uint amount, address _to) external {\n        require(counter + amount < maxNftNumber);\n        IERC20(dgovAddress).transfer(msg.sender, amount *1000000000000000000); //safeTransfer\n        for (uint i; i < amount - 1; i++) {\n            _safeMint(_to, counter);\n            counter ++;\n        }\n\n    }        \n}",
  "sourcePath": "/home/fic2linux/Crypto/Debond/D-NFT/contracts/DNFT0.sol",
  "compiler": {
    "name": "solc",
    "version": "0.8.17+commit.8df45f5f.Emscripten.clang"
  },
  "schemaVersion": "3.4.9",
  "updatedAt": "2022-10-12T20:25:01.160Z",
  "devdoc": {
    "kind": "dev",
    "methods": {
      "approve(address,uint256)": {
        "details": "See {IERC721-approve}."
      },
      "balanceOf(address)": {
        "details": "See {IERC721-balanceOf}."
      },
      "getApproved(uint256)": {
        "details": "See {IERC721-getApproved}."
      },
      "isApprovedForAll(address,address)": {
        "details": "See {IERC721-isApprovedForAll}."
      },
      "name()": {
        "details": "See {IERC721Metadata-name}."
      },
      "ownerOf(uint256)": {
        "details": "See {IERC721-ownerOf}."
      },
      "safeTransferFrom(address,address,uint256)": {
        "details": "See {IERC721-safeTransferFrom}."
      },
      "safeTransferFrom(address,address,uint256,bytes)": {
        "details": "See {IERC721-safeTransferFrom}."
      },
      "setApprovalForAll(address,bool)": {
        "details": "See {IERC721-setApprovalForAll}."
      },
      "supportsInterface(bytes4)": {
        "details": "See {IERC165-supportsInterface}."
      },
      "symbol()": {
        "details": "See {IERC721Metadata-symbol}."
      },
      "tokenURI(uint256)": {
        "details": "See {IERC721Metadata-tokenURI}."
      },
      "transferFrom(address,address,uint256)": {
        "details": "See {IERC721-transferFrom}."
      }
    },
    "version": 1
  },
  "userdoc": {
    "kind": "user",
    "methods": {},
    "version": 1
  }
}