{
  "contractName": "DNFT3",
  "abi": [
    {
      "inputs": [
        {
          "internalType": "address",
          "name": "_owner",
          "type": "address"
        }
      ],
      "stateMutability": "nonpayable",
      "type": "constructor"
    },
    {
      "anonymous": false,
      "inputs": [
        {
          "indexed": true,
          "internalType": "address",
          "name": "owner",
          "type": "address"
        },
        {
          "indexed": true,
          "internalType": "address",
          "name": "approved",
          "type": "address"
        },
        {
          "indexed": true,
          "internalType": "uint256",
          "name": "tokenId",
          "type": "uint256"
        }
      ],
      "name": "Approval",
      "type": "event"
    },
    {
      "anonymous": false,
      "inputs": [
        {
          "indexed": true,
          "internalType": "address",
          "name": "owner",
          "type": "address"
        },
        {
          "indexed": true,
          "internalType": "address",
          "name": "operator",
          "type": "address"
        },
        {
          "indexed": false,
          "internalType": "bool",
          "name": "approved",
          "type": "bool"
        }
      ],
      "name": "ApprovalForAll",
      "type": "event"
    },
    {
      "anonymous": false,
      "inputs": [
        {
          "indexed": true,
          "internalType": "address",
          "name": "from",
          "type": "address"
        },
        {
          "indexed": true,
          "internalType": "address",
          "name": "to",
          "type": "address"
        },
        {
          "indexed": true,
          "internalType": "uint256",
          "name": "tokenId",
          "type": "uint256"
        }
      ],
      "name": "Transfer",
      "type": "event"
    },
    {
      "inputs": [
        {
          "internalType": "address",
          "name": "to",
          "type": "address"
        },
        {
          "internalType": "uint256",
          "name": "tokenId",
          "type": "uint256"
        }
      ],
      "name": "approve",
      "outputs": [],
      "stateMutability": "nonpayable",
      "type": "function"
    },
    {
      "inputs": [
        {
          "internalType": "address",
          "name": "owner",
          "type": "address"
        }
      ],
      "name": "balanceOf",
      "outputs": [
        {
          "internalType": "uint256",
          "name": "",
          "type": "uint256"
        }
      ],
      "stateMutability": "view",
      "type": "function"
    },
    {
      "inputs": [
        {
          "internalType": "uint256",
          "name": "tokenId",
          "type": "uint256"
        }
      ],
      "name": "getApproved",
      "outputs": [
        {
          "internalType": "address",
          "name": "",
          "type": "address"
        }
      ],
      "stateMutability": "view",
      "type": "function"
    },
    {
      "inputs": [
        {
          "internalType": "address",
          "name": "owner",
          "type": "address"
        },
        {
          "internalType": "address",
          "name": "operator",
          "type": "address"
        }
      ],
      "name": "isApprovedForAll",
      "outputs": [
        {
          "internalType": "bool",
          "name": "",
          "type": "bool"
        }
      ],
      "stateMutability": "view",
      "type": "function"
    },
    {
      "inputs": [],
      "name": "name",
      "outputs": [
        {
          "internalType": "string",
          "name": "",
          "type": "string"
        }
      ],
      "stateMutability": "view",
      "type": "function"
    },
    {
      "inputs": [
        {
          "internalType": "uint256",
          "name": "tokenId",
          "type": "uint256"
        }
      ],
      "name": "ownerOf",
      "outputs": [
        {
          "internalType": "address",
          "name": "",
          "type": "address"
        }
      ],
      "stateMutability": "view",
      "type": "function"
    },
    {
      "inputs": [
        {
          "internalType": "address",
          "name": "from",
          "type": "address"
        },
        {
          "internalType": "address",
          "name": "to",
          "type": "address"
        },
        {
          "internalType": "uint256",
          "name": "tokenId",
          "type": "uint256"
        }
      ],
      "name": "safeTransferFrom",
      "outputs": [],
      "stateMutability": "nonpayable",
      "type": "function"
    },
    {
      "inputs": [
        {
          "internalType": "address",
          "name": "from",
          "type": "address"
        },
        {
          "internalType": "address",
          "name": "to",
          "type": "address"
        },
        {
          "internalType": "uint256",
          "name": "tokenId",
          "type": "uint256"
        },
        {
          "internalType": "bytes",
          "name": "data",
          "type": "bytes"
        }
      ],
      "name": "safeTransferFrom",
      "outputs": [],
      "stateMutability": "nonpayable",
      "type": "function"
    },
    {
      "inputs": [
        {
          "internalType": "address",
          "name": "operator",
          "type": "address"
        },
        {
          "internalType": "bool",
          "name": "approved",
          "type": "bool"
        }
      ],
      "name": "setApprovalForAll",
      "outputs": [],
      "stateMutability": "nonpayable",
      "type": "function"
    },
    {
      "inputs": [
        {
          "internalType": "bytes4",
          "name": "interfaceId",
          "type": "bytes4"
        }
      ],
      "name": "supportsInterface",
      "outputs": [
        {
          "internalType": "bool",
          "name": "",
          "type": "bool"
        }
      ],
      "stateMutability": "view",
      "type": "function"
    },
    {
      "inputs": [],
      "name": "symbol",
      "outputs": [
        {
          "internalType": "string",
          "name": "",
          "type": "string"
        }
      ],
      "stateMutability": "view",
      "type": "function"
    },
    {
      "inputs": [
        {
          "internalType": "uint256",
          "name": "tokenId",
          "type": "uint256"
        }
      ],
      "name": "tokenURI",
      "outputs": [
        {
          "internalType": "string",
          "name": "",
          "type": "string"
        }
      ],
      "stateMutability": "view",
      "type": "function"
    },
    {
      "inputs": [
        {
          "internalType": "address",
          "name": "from",
          "type": "address"
        },
        {
          "internalType": "address",
          "name": "to",
          "type": "address"
        },
        {
          "internalType": "uint256",
          "name": "tokenId",
          "type": "uint256"
        }
      ],
      "name": "transferFrom",
      "outputs": [],
      "stateMutability": "nonpayable",
      "type": "function"
    },
    {
      "inputs": [
        {
          "internalType": "address",
          "name": "_dnft2",
          "type": "address"
        }
      ],
      "name": "initialize",
      "outputs": [],
      "stateMutability": "nonpayable",
      "type": "function"
    },
    {
      "inputs": [
        {
          "internalType": "address",
          "name": "_to",
          "type": "address"
        }
      ],
      "name": "mintPrivate",
      "outputs": [],
      "stateMutability": "nonpayable",
      "type": "function"
    }
  ],
  "bytecode": "0x60a06040523480156200001157600080fd5b50604051620017e8380380620017e88339810160408190526200003491620000ab565b6040518060400160405280600b81526020016a4465626f6e64204e46543360a81b81525060405180604001604052806005815260200164444e46543360d81b815250816000908162000087919062000182565b50600162000096828262000182565b5050506001600160a01b03166080526200024e565b600060208284031215620000be57600080fd5b81516001600160a01b0381168114620000d657600080fd5b9392505050565b634e487b7160e01b600052604160045260246000fd5b600181811c908216806200010857607f821691505b6020821081036200012957634e487b7160e01b600052602260045260246000fd5b50919050565b601f8211156200017d57600081815260208120601f850160051c81016020861015620001585750805b601f850160051c820191505b81811015620001795782815560010162000164565b5050505b505050565b81516001600160401b038111156200019e576200019e620000dd565b620001b681620001af8454620000f3565b846200012f565b602080601f831160018114620001ee5760008415620001d55750858301515b600019600386901b1c1916600185901b17855562000179565b600085815260208120601f198616915b828110156200021f57888601518255948401946001909101908401620001fe565b50858210156200023e5787850151600019600388901b60f8161c191681555b5050505050600190811b01905550565b60805161158162000267600039600050506115816000f3fe608060405234801561001057600080fd5b50600436106100f55760003560e01c80636352211e11610097578063b88d4fde11610066578063b88d4fde146101ff578063c4d66de814610212578063c87b56dd1461024f578063e985e9c51461026257600080fd5b80636352211e146101b057806370a08231146101c357806395d89b41146101e4578063a22cb465146101ec57600080fd5b8063081812fc116100d3578063081812fc1461014c578063095ea7b31461017757806323b872dd1461018a57806342842e0e1461019d57600080fd5b806301ffc9a7146100fa57806306c723db1461012257806306fdde0314610137575b600080fd5b61010d610108366004611149565b61029e565b60405190151581526020015b60405180910390f35b610135610130366004611182565b61033b565b005b61013f610376565b60405161011991906111ed565b61015f61015a366004611200565b610408565b6040516001600160a01b039091168152602001610119565b610135610185366004611219565b61042f565b610135610198366004611243565b610583565b6101356101ab366004611243565b61060a565b61015f6101be366004611200565b610625565b6101d66101d1366004611182565b61068a565b604051908152602001610119565b61013f610724565b6101356101fa36600461127f565b610733565b61013561020d3660046112d1565b610742565b610135610220366004611182565b6006805473ffffffffffffffffffffffffffffffffffffffff19166001600160a01b0392909216919091179055565b61013f61025d366004611200565b6107d0565b61010d6102703660046113ad565b6001600160a01b03918216600090815260056020908152604080832093909416825291909152205460ff1690565b60006001600160e01b031982167f80ac58cd00000000000000000000000000000000000000000000000000000000148061030157506001600160e01b031982167f5b5e139f00000000000000000000000000000000000000000000000000000000145b8061033557507f01ffc9a7000000000000000000000000000000000000000000000000000000006001600160e01b03198316145b92915050565b6006546001600160a01b0316331461035257600080fd5b61035e81600854610844565b6008805490600061036e836113f6565b919050555050565b6060600080546103859061140f565b80601f01602080910402602001604051908101604052809291908181526020018280546103b19061140f565b80156103fe5780601f106103d3576101008083540402835291602001916103fe565b820191906000526020600020905b8154815290600101906020018083116103e157829003601f168201915b5050505050905090565b60006104138261085e565b506000908152600460205260409020546001600160a01b031690565b600061043a82610625565b9050806001600160a01b0316836001600160a01b0316036104c85760405162461bcd60e51b815260206004820152602160248201527f4552433732313a20617070726f76616c20746f2063757272656e74206f776e6560448201527f720000000000000000000000000000000000000000000000000000000000000060648201526084015b60405180910390fd5b336001600160a01b038216148061050257506001600160a01b038116600090815260056020908152604080832033845290915290205460ff165b6105745760405162461bcd60e51b815260206004820152603e60248201527f4552433732313a20617070726f76652063616c6c6572206973206e6f7420746f60448201527f6b656e206f776e6572206e6f7220617070726f76656420666f7220616c6c000060648201526084016104bf565b61057e83836108c5565b505050565b61058d3382610940565b6105ff5760405162461bcd60e51b815260206004820152602e60248201527f4552433732313a2063616c6c6572206973206e6f7420746f6b656e206f776e6560448201527f72206e6f7220617070726f76656400000000000000000000000000000000000060648201526084016104bf565b61057e8383836109bf565b61057e83838360405180602001604052806000815250610742565b6000818152600260205260408120546001600160a01b0316806103355760405162461bcd60e51b815260206004820152601860248201527f4552433732313a20696e76616c696420746f6b656e204944000000000000000060448201526064016104bf565b60006001600160a01b0382166107085760405162461bcd60e51b815260206004820152602960248201527f4552433732313a2061646472657373207a65726f206973206e6f74206120766160448201527f6c6964206f776e6572000000000000000000000000000000000000000000000060648201526084016104bf565b506001600160a01b031660009081526003602052604090205490565b6060600180546103859061140f565b61073e338383610b99565b5050565b61074c3383610940565b6107be5760405162461bcd60e51b815260206004820152602e60248201527f4552433732313a2063616c6c6572206973206e6f7420746f6b656e206f776e6560448201527f72206e6f7220617070726f76656400000000000000000000000000000000000060648201526084016104bf565b6107ca84848484610c67565b50505050565b60606107db8261085e565b60006107f260408051602081019091526000815290565b90506000815111610812576040518060200160405280600081525061083d565b8061081c84610ce5565b60405160200161082d929190611449565b6040516020818303038152906040525b9392505050565b61073e828260405180602001604052806000815250610e1a565b6000818152600260205260409020546001600160a01b03166108c25760405162461bcd60e51b815260206004820152601860248201527f4552433732313a20696e76616c696420746f6b656e204944000000000000000060448201526064016104bf565b50565b6000818152600460205260409020805473ffffffffffffffffffffffffffffffffffffffff19166001600160a01b038416908117909155819061090782610625565b6001600160a01b03167f8c5be1e5ebec7d5bd14f71427d1e84f3dd0314c0f7b2291e5b200ac8c7c3b92560405160405180910390a45050565b60008061094c83610625565b9050806001600160a01b0316846001600160a01b0316148061099357506001600160a01b0380821660009081526005602090815260408083209388168352929052205460ff165b806109b75750836001600160a01b03166109ac84610408565b6001600160a01b0316145b949350505050565b826001600160a01b03166109d282610625565b6001600160a01b031614610a4e5760405162461bcd60e51b815260206004820152602560248201527f4552433732313a207472616e736665722066726f6d20696e636f72726563742060448201527f6f776e657200000000000000000000000000000000000000000000000000000060648201526084016104bf565b6001600160a01b038216610ac95760405162461bcd60e51b8152602060048201526024808201527f4552433732313a207472616e7366657220746f20746865207a65726f2061646460448201527f726573730000000000000000000000000000000000000000000000000000000060648201526084016104bf565b610ad46000826108c5565b6001600160a01b0383166000908152600360205260408120805460019290610afd908490611478565b90915550506001600160a01b0382166000908152600360205260408120805460019290610b2b90849061148b565b9091555050600081815260026020526040808220805473ffffffffffffffffffffffffffffffffffffffff19166001600160a01b0386811691821790925591518493918716917fddf252ad1be2c89b69c2b068fc378daa952ba7f163c4a11628f55a4df523b3ef91a4505050565b816001600160a01b0316836001600160a01b031603610bfa5760405162461bcd60e51b815260206004820152601960248201527f4552433732313a20617070726f766520746f2063616c6c65720000000000000060448201526064016104bf565b6001600160a01b03838116600081815260056020908152604080832094871680845294825291829020805460ff191686151590811790915591519182527f17307eab39ab6107e8899845ad3d59bd9653f200f220920489ca2b5937696c31910160405180910390a3505050565b610c728484846109bf565b610c7e84848484610e98565b6107ca5760405162461bcd60e51b815260206004820152603260248201527f4552433732313a207472616e7366657220746f206e6f6e20455243373231526560448201527131b2b4bb32b91034b6b83632b6b2b73a32b960711b60648201526084016104bf565b606081600003610d2857505060408051808201909152600181527f3000000000000000000000000000000000000000000000000000000000000000602082015290565b8160005b8115610d525780610d3c816113f6565b9150610d4b9050600a836114b4565b9150610d2c565b60008167ffffffffffffffff811115610d6d57610d6d6112bb565b6040519080825280601f01601f191660200182016040528015610d97576020820181803683370190505b5090505b84156109b757610dac600183611478565b9150610db9600a866114c8565b610dc490603061148b565b60f81b818381518110610dd957610dd96114dc565b60200101907effffffffffffffffffffffffffffffffffffffffffffffffffffffffffffff1916908160001a905350610e13600a866114b4565b9450610d9b565b610e248383610fe4565b610e316000848484610e98565b61057e5760405162461bcd60e51b815260206004820152603260248201527f4552433732313a207472616e7366657220746f206e6f6e20455243373231526560448201527131b2b4bb32b91034b6b83632b6b2b73a32b960711b60648201526084016104bf565b60006001600160a01b0384163b15610fd957604051630a85bd0160e11b81526001600160a01b0385169063150b7a0290610edc9033908990889088906004016114f2565b6020604051808303816000875af1925050508015610f17575060408051601f3d908101601f19168201909252610f149181019061152e565b60015b610fbf573d808015610f45576040519150601f19603f3d011682016040523d82523d6000602084013e610f4a565b606091505b508051600003610fb75760405162461bcd60e51b815260206004820152603260248201527f4552433732313a207472616e7366657220746f206e6f6e20455243373231526560448201527131b2b4bb32b91034b6b83632b6b2b73a32b960711b60648201526084016104bf565b805181602001fd5b6001600160e01b031916630a85bd0160e11b1490506109b7565b506001949350505050565b6001600160a01b03821661103a5760405162461bcd60e51b815260206004820181905260248201527f4552433732313a206d696e7420746f20746865207a65726f206164647265737360448201526064016104bf565b6000818152600260205260409020546001600160a01b03161561109f5760405162461bcd60e51b815260206004820152601c60248201527f4552433732313a20746f6b656e20616c7265616479206d696e7465640000000060448201526064016104bf565b6001600160a01b03821660009081526003602052604081208054600192906110c890849061148b565b9091555050600081815260026020526040808220805473ffffffffffffffffffffffffffffffffffffffff19166001600160a01b03861690811790915590518392907fddf252ad1be2c89b69c2b068fc378daa952ba7f163c4a11628f55a4df523b3ef908290a45050565b6001600160e01b0319811681146108c257600080fd5b60006020828403121561115b57600080fd5b813561083d81611133565b80356001600160a01b038116811461117d57600080fd5b919050565b60006020828403121561119457600080fd5b61083d82611166565b60005b838110156111b85781810151838201526020016111a0565b50506000910152565b600081518084526111d981602086016020860161119d565b601f01601f19169290920160200192915050565b60208152600061083d60208301846111c1565b60006020828403121561121257600080fd5b5035919050565b6000806040838503121561122c57600080fd5b61123583611166565b946020939093013593505050565b60008060006060848603121561125857600080fd5b61126184611166565b925061126f60208501611166565b9150604084013590509250925092565b6000806040838503121561129257600080fd5b61129b83611166565b9150602083013580151581146112b057600080fd5b809150509250929050565b634e487b7160e01b600052604160045260246000fd5b600080600080608085870312156112e757600080fd5b6112f085611166565b93506112fe60208601611166565b925060408501359150606085013567ffffffffffffffff8082111561132257600080fd5b818701915087601f83011261133657600080fd5b813581811115611348576113486112bb565b604051601f8201601f19908116603f01168101908382118183101715611370576113706112bb565b816040528281528a602084870101111561138957600080fd5b82602086016020830137600060208483010152809550505050505092959194509250565b600080604083850312156113c057600080fd5b6113c983611166565b91506113d760208401611166565b90509250929050565b634e487b7160e01b600052601160045260246000fd5b600060018201611408576114086113e0565b5060010190565b600181811c9082168061142357607f821691505b60208210810361144357634e487b7160e01b600052602260045260246000fd5b50919050565b6000835161145b81846020880161119d565b83519083019061146f81836020880161119d565b01949350505050565b81810381811115610335576103356113e0565b80820180821115610335576103356113e0565b634e487b7160e01b600052601260045260246000fd5b6000826114c3576114c361149e565b500490565b6000826114d7576114d761149e565b500690565b634e487b7160e01b600052603260045260246000fd5b60006001600160a01b0380871683528086166020840152508360408301526080606083015261152460808301846111c1565b9695505050505050565b60006020828403121561154057600080fd5b815161083d8161113356fea26469706673582212202fe39e0a5c68c2cf42d534d15f9711238a2eccf1887c6fb957f1804e3426de6f64736f6c63430008110033",
  "immutableReferences": {},
  "source": "pragma solidity ^0.8.0;\n\n// SPDX-License-Identifier: apache 2.0\n/*\n    Copyright 2022 Debond Protocol <info@debond.org>\n    Licensed under the Apache License, Version 2.0 (the \"License\");\n    you may not use this file except in compliance with the License.\n    You may obtain a copy of the License at\n    http://www.apache.org/licenses/LICENSE-2.0\n    Unless required by applicable law or agreed to in writing, software\n    distributed under the License is distributed on an \"AS IS\" BASIS,\n    WITHOUT WARRANTIES OR CONDITIONS OF ANY KIND, either express or implied.\n    See the License for the specific language governing permissions and\n    limitations under the License.\n*/\n\nimport \"@openzeppelin/contracts/token/ERC721/ERC721.sol\";\nimport \"@openzeppelin/contracts/token/ERC20/IERC20.sol\";\nimport \"./RandomNumber.sol\";\nimport \"./interfaces/IDNFT.sol\";\n\ncontract DNFT3 is ERC721, IDNFT{\n\n    /*address immutable governanceAddress;\n    address immutable debondNFTTokenAddress;\n    address immutable dgovAddress;*/\n    address dnft2;\n    address immutable owner;\n\n    constructor(address _owner ) ERC721(\"Debond NFT3\", \"DNFT3\"){\n        /*governanceAddress = _governanceAddress;\n        debondNFTTokenAddress = _debondNFTTokenAddress;\n        dgovAddress = _dgovAddress;*/\n        owner = _owner;\n    }\n\n    function initialize(address _dnft2) external {\n        dnft2 = _dnft2;\n    }\n\n    uint maxNftNumber;\n    uint counter;\n\n    function mintPrivate(address _to) external {\n        require(msg.sender == dnft2);\n        _safeMint(_to, counter);\n        counter++;\n    }\n\n\n\n\n\n\n\n        \n}",
  "sourcePath": "/home/fic2linux/Crypto/Debond/D-NFT/contracts/DNFT3.sol",
  "compiler": {
    "name": "solc",
    "version": "0.8.17+commit.8df45f5f.Emscripten.clang"
  },
  "schemaVersion": "3.4.9",
  "updatedAt": "2022-10-10T13:10:36.447Z",
  "networkType": "ethereum",
  "devdoc": {
    "kind": "dev",
    "methods": {
      "approve(address,uint256)": {
        "details": "See {IERC721-approve}."
      },
      "balanceOf(address)": {
        "details": "See {IERC721-balanceOf}."
      },
      "getApproved(uint256)": {
        "details": "See {IERC721-getApproved}."
      },
      "isApprovedForAll(address,address)": {
        "details": "See {IERC721-isApprovedForAll}."
      },
      "name()": {
        "details": "See {IERC721Metadata-name}."
      },
      "ownerOf(uint256)": {
        "details": "See {IERC721-ownerOf}."
      },
      "safeTransferFrom(address,address,uint256)": {
        "details": "See {IERC721-safeTransferFrom}."
      },
      "safeTransferFrom(address,address,uint256,bytes)": {
        "details": "See {IERC721-safeTransferFrom}."
      },
      "setApprovalForAll(address,bool)": {
        "details": "See {IERC721-setApprovalForAll}."
      },
      "supportsInterface(bytes4)": {
        "details": "See {IERC165-supportsInterface}."
      },
      "symbol()": {
        "details": "See {IERC721Metadata-symbol}."
      },
      "tokenURI(uint256)": {
        "details": "See {IERC721Metadata-tokenURI}."
      },
      "transferFrom(address,address,uint256)": {
        "details": "See {IERC721-transferFrom}."
      }
    },
    "version": 1
  },
  "userdoc": {
    "kind": "user",
    "methods": {},
    "version": 1
  }
}