{
  "contractName": "DNFT",
  "abi": [
    {
      "inputs": [
        {
          "internalType": "address",
          "name": "_owner",
          "type": "address"
        },
        {
          "internalType": "address",
          "name": "_debondNFTTokenAddress",
          "type": "address"
        },
        {
          "internalType": "address",
          "name": "_dgovAddress",
          "type": "address"
        }
      ],
      "stateMutability": "nonpayable",
      "type": "constructor"
    },
    {
      "anonymous": false,
      "inputs": [
        {
          "indexed": true,
          "internalType": "address",
          "name": "owner",
          "type": "address"
        },
        {
          "indexed": true,
          "internalType": "address",
          "name": "approved",
          "type": "address"
        },
        {
          "indexed": true,
          "internalType": "uint256",
          "name": "tokenId",
          "type": "uint256"
        }
      ],
      "name": "Approval",
      "type": "event"
    },
    {
      "anonymous": false,
      "inputs": [
        {
          "indexed": true,
          "internalType": "address",
          "name": "owner",
          "type": "address"
        },
        {
          "indexed": true,
          "internalType": "address",
          "name": "operator",
          "type": "address"
        },
        {
          "indexed": false,
          "internalType": "bool",
          "name": "approved",
          "type": "bool"
        }
      ],
      "name": "ApprovalForAll",
      "type": "event"
    },
    {
      "anonymous": false,
      "inputs": [
        {
          "indexed": true,
          "internalType": "address",
          "name": "from",
          "type": "address"
        },
        {
          "indexed": true,
          "internalType": "address",
          "name": "to",
          "type": "address"
        },
        {
          "indexed": true,
          "internalType": "uint256",
          "name": "tokenId",
          "type": "uint256"
        }
      ],
      "name": "Transfer",
      "type": "event"
    },
    {
      "inputs": [
        {
          "internalType": "address",
          "name": "to",
          "type": "address"
        },
        {
          "internalType": "uint256",
          "name": "tokenId",
          "type": "uint256"
        }
      ],
      "name": "approve",
      "outputs": [],
      "stateMutability": "nonpayable",
      "type": "function"
    },
    {
      "inputs": [
        {
          "internalType": "address",
          "name": "owner",
          "type": "address"
        }
      ],
      "name": "balanceOf",
      "outputs": [
        {
          "internalType": "uint256",
          "name": "",
          "type": "uint256"
        }
      ],
      "stateMutability": "view",
      "type": "function",
      "constant": true
    },
    {
      "inputs": [
        {
          "internalType": "uint256",
          "name": "tokenId",
          "type": "uint256"
        }
      ],
      "name": "getApproved",
      "outputs": [
        {
          "internalType": "address",
          "name": "",
          "type": "address"
        }
      ],
      "stateMutability": "view",
      "type": "function",
      "constant": true
    },
    {
      "inputs": [
        {
          "internalType": "address",
          "name": "owner",
          "type": "address"
        },
        {
          "internalType": "address",
          "name": "operator",
          "type": "address"
        }
      ],
      "name": "isApprovedForAll",
      "outputs": [
        {
          "internalType": "bool",
          "name": "",
          "type": "bool"
        }
      ],
      "stateMutability": "view",
      "type": "function",
      "constant": true
    },
    {
      "inputs": [],
      "name": "name",
      "outputs": [
        {
          "internalType": "string",
          "name": "",
          "type": "string"
        }
      ],
      "stateMutability": "view",
      "type": "function",
      "constant": true
    },
    {
      "inputs": [
        {
          "internalType": "uint256",
          "name": "tokenId",
          "type": "uint256"
        }
      ],
      "name": "ownerOf",
      "outputs": [
        {
          "internalType": "address",
          "name": "",
          "type": "address"
        }
      ],
      "stateMutability": "view",
      "type": "function",
      "constant": true
    },
    {
      "inputs": [
        {
          "internalType": "address",
          "name": "from",
          "type": "address"
        },
        {
          "internalType": "address",
          "name": "to",
          "type": "address"
        },
        {
          "internalType": "uint256",
          "name": "tokenId",
          "type": "uint256"
        }
      ],
      "name": "safeTransferFrom",
      "outputs": [],
      "stateMutability": "nonpayable",
      "type": "function"
    },
    {
      "inputs": [
        {
          "internalType": "address",
          "name": "from",
          "type": "address"
        },
        {
          "internalType": "address",
          "name": "to",
          "type": "address"
        },
        {
          "internalType": "uint256",
          "name": "tokenId",
          "type": "uint256"
        },
        {
          "internalType": "bytes",
          "name": "data",
          "type": "bytes"
        }
      ],
      "name": "safeTransferFrom",
      "outputs": [],
      "stateMutability": "nonpayable",
      "type": "function"
    },
    {
      "inputs": [
        {
          "internalType": "address",
          "name": "operator",
          "type": "address"
        },
        {
          "internalType": "bool",
          "name": "approved",
          "type": "bool"
        }
      ],
      "name": "setApprovalForAll",
      "outputs": [],
      "stateMutability": "nonpayable",
      "type": "function"
    },
    {
      "inputs": [
        {
          "internalType": "bytes4",
          "name": "interfaceId",
          "type": "bytes4"
        }
      ],
      "name": "supportsInterface",
      "outputs": [
        {
          "internalType": "bool",
          "name": "",
          "type": "bool"
        }
      ],
      "stateMutability": "view",
      "type": "function",
      "constant": true
    },
    {
      "inputs": [],
      "name": "symbol",
      "outputs": [
        {
          "internalType": "string",
          "name": "",
          "type": "string"
        }
      ],
      "stateMutability": "view",
      "type": "function",
      "constant": true
    },
    {
      "inputs": [
        {
          "internalType": "uint256",
          "name": "tokenId",
          "type": "uint256"
        }
      ],
      "name": "tokenURI",
      "outputs": [
        {
          "internalType": "string",
          "name": "",
          "type": "string"
        }
      ],
      "stateMutability": "view",
      "type": "function",
      "constant": true
    },
    {
      "inputs": [
        {
          "internalType": "address",
          "name": "from",
          "type": "address"
        },
        {
          "internalType": "address",
          "name": "to",
          "type": "address"
        },
        {
          "internalType": "uint256",
          "name": "tokenId",
          "type": "uint256"
        }
      ],
      "name": "transferFrom",
      "outputs": [],
      "stateMutability": "nonpayable",
      "type": "function"
    },
    {
      "inputs": [
        {
          "internalType": "address",
          "name": "_dnft2",
          "type": "address"
        }
      ],
      "name": "initialize",
      "outputs": [],
      "stateMutability": "nonpayable",
      "type": "function"
    },
    {
      "inputs": [
        {
          "internalType": "uint256",
          "name": "amount",
          "type": "uint256"
        },
        {
          "internalType": "address",
          "name": "_to",
          "type": "address"
        }
      ],
      "name": "reveal",
      "outputs": [],
      "stateMutability": "nonpayable",
      "type": "function"
    },
    {
      "inputs": [
        {
          "internalType": "uint256",
          "name": "amount",
          "type": "uint256"
        },
        {
          "internalType": "address",
          "name": "_to",
          "type": "address"
        }
      ],
      "name": "forge",
      "outputs": [],
      "stateMutability": "nonpayable",
      "type": "function"
    },
    {
      "inputs": [
        {
          "internalType": "address",
          "name": "_to",
          "type": "address"
        },
        {
          "internalType": "uint256[]",
          "name": "ids",
          "type": "uint256[]"
        }
      ],
      "name": "compose",
      "outputs": [],
      "stateMutability": "nonpayable",
      "type": "function"
    }
  ],
  "bytecode": "0x60a06040523480156200001157600080fd5b5060405162001c8f38038062001c8f8339810160408190526200003491620000e5565b60405180604001604052806005815260200164111093d39160da1b8152506040518060400160405280600381526020016211109160ea1b81525081600090816200007f9190620001d4565b5060016200008e8282620001d4565b5050506001600160a01b03928316608052600680549284166001600160a01b031993841617905560078054919093169116179055620002a0565b80516001600160a01b0381168114620000e057600080fd5b919050565b600080600060608486031215620000fb57600080fd5b6200010684620000c8565b92506200011660208501620000c8565b91506200012660408501620000c8565b90509250925092565b634e487b7160e01b600052604160045260246000fd5b600181811c908216806200015a57607f821691505b6020821081036200017b57634e487b7160e01b600052602260045260246000fd5b50919050565b601f821115620001cf57600081815260208120601f850160051c81016020861015620001aa5750805b601f850160051c820191505b81811015620001cb57828155600101620001b6565b5050505b505050565b81516001600160401b03811115620001f057620001f06200012f565b620002088162000201845462000145565b8462000181565b602080601f831160018114620002405760008415620002275750858301515b600019600386901b1c1916600185901b178555620001cb565b600085815260208120601f198616915b82811015620002715788860151825594840194600190910190840162000250565b5085821015620002905787850151600019600388901b60f8161c191681555b5050505050600190811b01905550565b6080516119d3620002bc60003960006109b201526119d36000f3fe608060405234801561001057600080fd5b506004361061011b5760003560e01c806395d89b41116100b2578063bfb70e0411610081578063c87b56dd11610066578063c87b56dd1461025e578063cda9c0ea14610271578063e985e9c51461028457600080fd5b8063bfb70e0414610238578063c4d66de81461024b57600080fd5b806395d89b41146101f7578063a22cb465146101ff578063b58839f514610212578063b88d4fde1461022557600080fd5b806323b872dd116100ee57806323b872dd1461019d57806342842e0e146101b05780636352211e146101c357806370a08231146101d657600080fd5b806301ffc9a71461012057806306fdde0314610148578063081812fc1461015d578063095ea7b314610188575b600080fd5b61013361012e36600461146d565b6102c0565b60405190151581526020015b60405180910390f35b61015061035d565b60405161013f91906114da565b61017061016b3660046114ed565b6103ef565b6040516001600160a01b03909116815260200161013f565b61019b610196366004611522565b610416565b005b61019b6101ab36600461154c565b61056a565b61019b6101be36600461154c565b6105f1565b6101706101d13660046114ed565b61060c565b6101e96101e4366004611588565b610671565b60405190815260200161013f565b61015061070b565b61019b61020d3660046115b1565b61071a565b61019b6102203660046115e8565b610729565b61019b61023336600461165b565b610821565b61019b6102463660046115e8565b6108af565b61019b610259366004611588565b6109a7565b61015061026c3660046114ed565b610a0b565b61019b61027f36600461171b565b610a7f565b6101336102923660046117d4565b6001600160a01b03918216600090815260056020908152604080832093909416825291909152205460ff1690565b60006001600160e01b031982167f80ac58cd00000000000000000000000000000000000000000000000000000000148061032357506001600160e01b031982167f5b5e139f00000000000000000000000000000000000000000000000000000000145b8061035757507f01ffc9a7000000000000000000000000000000000000000000000000000000006001600160e01b03198316145b92915050565b60606000805461036c906117fe565b80601f0160208091040260200160405190810160405280929190818152602001828054610398906117fe565b80156103e55780601f106103ba576101008083540402835291602001916103e5565b820191906000526020600020905b8154815290600101906020018083116103c857829003601f168201915b5050505050905090565b60006103fa82610b68565b506000908152600460205260409020546001600160a01b031690565b60006104218261060c565b9050806001600160a01b0316836001600160a01b0316036104af5760405162461bcd60e51b815260206004820152602160248201527f4552433732313a20617070726f76616c20746f2063757272656e74206f776e6560448201527f720000000000000000000000000000000000000000000000000000000000000060648201526084015b60405180910390fd5b336001600160a01b03821614806104e957506001600160a01b038116600090815260056020908152604080832033845290915290205460ff165b61055b5760405162461bcd60e51b815260206004820152603e60248201527f4552433732313a20617070726f76652063616c6c6572206973206e6f7420746f60448201527f6b656e206f776e6572206e6f7220617070726f76656420666f7220616c6c000060648201526084016104a6565b6105658383610bcf565b505050565b6105743382610c4a565b6105e65760405162461bcd60e51b815260206004820152602e60248201527f4552433732313a2063616c6c6572206973206e6f7420746f6b656e206f776e6560448201527f72206e6f7220617070726f76656400000000000000000000000000000000000060648201526084016104a6565b610565838383610cc9565b61056583838360405180602001604052806000815250610821565b6000818152600260205260408120546001600160a01b0316806103575760405162461bcd60e51b815260206004820152601860248201527f4552433732313a20696e76616c696420746f6b656e204944000000000000000060448201526064016104a6565b60006001600160a01b0382166106ef5760405162461bcd60e51b815260206004820152602960248201527f4552433732313a2061646472657373207a65726f206973206e6f74206120766160448201527f6c6964206f776e6572000000000000000000000000000000000000000000000060648201526084016104a6565b506001600160a01b031660009081526003602052604090205490565b60606001805461036c906117fe565b610725338383610ea3565b5050565b60095482600a5461073a919061184e565b1061074457600080fd5b6007546001600160a01b031663a9059cbb3361076885670de0b6b3a7640000611861565b6040516001600160e01b031960e085901b1681526001600160a01b03909216600483015260248201526044016020604051808303816000875af11580156107b3573d6000803e3d6000fd5b505050506040513d601f19601f820116820180604052508101906107d79190611878565b5060005b6107e6600184611895565b811015610565576107f982600a54610f71565b600a8054906000610809836118a8565b91905055508080610819906118a8565b9150506107db565b61082b3383610c4a565b61089d5760405162461bcd60e51b815260206004820152602e60248201527f4552433732313a2063616c6c6572206973206e6f7420746f6b656e206f776e6560448201527f72206e6f7220617070726f76656400000000000000000000000000000000000060648201526084016104a6565b6108a984848484610f8b565b50505050565b60095482600a546108c0919061184e565b106108ca57600080fd5b6006546001600160a01b031663a9059cbb336108ee85670de0b6b3a7640000611861565b6040516001600160e01b031960e085901b1681526001600160a01b03909216600483015260248201526044016020604051808303816000875af1158015610939573d6000803e3d6000fd5b505050506040513d601f19601f8201168201806040525081019061095d9190611878565b5060005b61096c600184611895565b8110156105655761097f82600a54610f71565b600a805490600061098f836118a8565b9190505550808061099f906118a8565b915050610961565b336001600160a01b037f000000000000000000000000000000000000000000000000000000000000000016146109dc57600080fd5b6008805473ffffffffffffffffffffffffffffffffffffffff19166001600160a01b0392909216919091179055565b6060610a1682610b68565b6000610a2d60408051602081019091526000815290565b90506000815111610a4d5760405180602001604052806000815250610a78565b80610a5784611009565b604051602001610a689291906118c1565b6040516020818303038152906040525b9392505050565b8051600a14610a8d57600080fd5b60005b60018251610a9e9190611895565b811015610aeb57610ad98330848481518110610abc57610abc6118f0565b602002602001015160405180602001604052806000815250610f8b565b80610ae3816118a8565b915050610a90565b506008546040517f06c723db0000000000000000000000000000000000000000000000000000000081526001600160a01b038481166004830152909116906306c723db90602401600060405180830381600087803b158015610b4c57600080fd5b505af1158015610b60573d6000803e3d6000fd5b505050505050565b6000818152600260205260409020546001600160a01b0316610bcc5760405162461bcd60e51b815260206004820152601860248201527f4552433732313a20696e76616c696420746f6b656e204944000000000000000060448201526064016104a6565b50565b6000818152600460205260409020805473ffffffffffffffffffffffffffffffffffffffff19166001600160a01b0384169081179091558190610c118261060c565b6001600160a01b03167f8c5be1e5ebec7d5bd14f71427d1e84f3dd0314c0f7b2291e5b200ac8c7c3b92560405160405180910390a45050565b600080610c568361060c565b9050806001600160a01b0316846001600160a01b03161480610c9d57506001600160a01b0380821660009081526005602090815260408083209388168352929052205460ff165b80610cc15750836001600160a01b0316610cb6846103ef565b6001600160a01b0316145b949350505050565b826001600160a01b0316610cdc8261060c565b6001600160a01b031614610d585760405162461bcd60e51b815260206004820152602560248201527f4552433732313a207472616e736665722066726f6d20696e636f72726563742060448201527f6f776e657200000000000000000000000000000000000000000000000000000060648201526084016104a6565b6001600160a01b038216610dd35760405162461bcd60e51b8152602060048201526024808201527f4552433732313a207472616e7366657220746f20746865207a65726f2061646460448201527f726573730000000000000000000000000000000000000000000000000000000060648201526084016104a6565b610dde600082610bcf565b6001600160a01b0383166000908152600360205260408120805460019290610e07908490611895565b90915550506001600160a01b0382166000908152600360205260408120805460019290610e3590849061184e565b9091555050600081815260026020526040808220805473ffffffffffffffffffffffffffffffffffffffff19166001600160a01b0386811691821790925591518493918716917fddf252ad1be2c89b69c2b068fc378daa952ba7f163c4a11628f55a4df523b3ef91a4505050565b816001600160a01b0316836001600160a01b031603610f045760405162461bcd60e51b815260206004820152601960248201527f4552433732313a20617070726f766520746f2063616c6c65720000000000000060448201526064016104a6565b6001600160a01b03838116600081815260056020908152604080832094871680845294825291829020805460ff191686151590811790915591519182527f17307eab39ab6107e8899845ad3d59bd9653f200f220920489ca2b5937696c31910160405180910390a3505050565b61072582826040518060200160405280600081525061113e565b610f96848484610cc9565b610fa2848484846111bc565b6108a95760405162461bcd60e51b815260206004820152603260248201527f4552433732313a207472616e7366657220746f206e6f6e20455243373231526560448201527131b2b4bb32b91034b6b83632b6b2b73a32b960711b60648201526084016104a6565b60608160000361104c57505060408051808201909152600181527f3000000000000000000000000000000000000000000000000000000000000000602082015290565b8160005b81156110765780611060816118a8565b915061106f9050600a8361191c565b9150611050565b60008167ffffffffffffffff81111561109157611091611614565b6040519080825280601f01601f1916602001820160405280156110bb576020820181803683370190505b5090505b8415610cc1576110d0600183611895565b91506110dd600a86611930565b6110e890603061184e565b60f81b8183815181106110fd576110fd6118f0565b60200101907effffffffffffffffffffffffffffffffffffffffffffffffffffffffffffff1916908160001a905350611137600a8661191c565b94506110bf565b6111488383611308565b61115560008484846111bc565b6105655760405162461bcd60e51b815260206004820152603260248201527f4552433732313a207472616e7366657220746f206e6f6e20455243373231526560448201527131b2b4bb32b91034b6b83632b6b2b73a32b960711b60648201526084016104a6565b60006001600160a01b0384163b156112fd57604051630a85bd0160e11b81526001600160a01b0385169063150b7a0290611200903390899088908890600401611944565b6020604051808303816000875af192505050801561123b575060408051601f3d908101601f1916820190925261123891810190611980565b60015b6112e3573d808015611269576040519150601f19603f3d011682016040523d82523d6000602084013e61126e565b606091505b5080516000036112db5760405162461bcd60e51b815260206004820152603260248201527f4552433732313a207472616e7366657220746f206e6f6e20455243373231526560448201527131b2b4bb32b91034b6b83632b6b2b73a32b960711b60648201526084016104a6565b805181602001fd5b6001600160e01b031916630a85bd0160e11b149050610cc1565b506001949350505050565b6001600160a01b03821661135e5760405162461bcd60e51b815260206004820181905260248201527f4552433732313a206d696e7420746f20746865207a65726f206164647265737360448201526064016104a6565b6000818152600260205260409020546001600160a01b0316156113c35760405162461bcd60e51b815260206004820152601c60248201527f4552433732313a20746f6b656e20616c7265616479206d696e7465640000000060448201526064016104a6565b6001600160a01b03821660009081526003602052604081208054600192906113ec90849061184e565b9091555050600081815260026020526040808220805473ffffffffffffffffffffffffffffffffffffffff19166001600160a01b03861690811790915590518392907fddf252ad1be2c89b69c2b068fc378daa952ba7f163c4a11628f55a4df523b3ef908290a45050565b6001600160e01b031981168114610bcc57600080fd5b60006020828403121561147f57600080fd5b8135610a7881611457565b60005b838110156114a557818101518382015260200161148d565b50506000910152565b600081518084526114c681602086016020860161148a565b601f01601f19169290920160200192915050565b602081526000610a7860208301846114ae565b6000602082840312156114ff57600080fd5b5035919050565b80356001600160a01b038116811461151d57600080fd5b919050565b6000806040838503121561153557600080fd5b61153e83611506565b946020939093013593505050565b60008060006060848603121561156157600080fd5b61156a84611506565b925061157860208501611506565b9150604084013590509250925092565b60006020828403121561159a57600080fd5b610a7882611506565b8015158114610bcc57600080fd5b600080604083850312156115c457600080fd5b6115cd83611506565b915060208301356115dd816115a3565b809150509250929050565b600080604083850312156115fb57600080fd5b8235915061160b60208401611506565b90509250929050565b634e487b7160e01b600052604160045260246000fd5b604051601f8201601f1916810167ffffffffffffffff8111828210171561165357611653611614565b604052919050565b6000806000806080858703121561167157600080fd5b61167a85611506565b93506020611689818701611506565b935060408601359250606086013567ffffffffffffffff808211156116ad57600080fd5b818801915088601f8301126116c157600080fd5b8135818111156116d3576116d3611614565b6116e5601f8201601f1916850161162a565b915080825289848285010111156116fb57600080fd5b808484018584013760008482840101525080935050505092959194509250565b6000806040838503121561172e57600080fd5b61173783611506565b915060208084013567ffffffffffffffff8082111561175557600080fd5b818601915086601f83011261176957600080fd5b81358181111561177b5761177b611614565b8060051b915061178c84830161162a565b81815291830184019184810190898411156117a657600080fd5b938501935b838510156117c4578435825293850193908501906117ab565b8096505050505050509250929050565b600080604083850312156117e757600080fd5b6117f083611506565b915061160b60208401611506565b600181811c9082168061181257607f821691505b60208210810361183257634e487b7160e01b600052602260045260246000fd5b50919050565b634e487b7160e01b600052601160045260246000fd5b8082018082111561035757610357611838565b808202811582820484141761035757610357611838565b60006020828403121561188a57600080fd5b8151610a78816115a3565b8181038181111561035757610357611838565b6000600182016118ba576118ba611838565b5060010190565b600083516118d381846020880161148a565b8351908301906118e781836020880161148a565b01949350505050565b634e487b7160e01b600052603260045260246000fd5b634e487b7160e01b600052601260045260246000fd5b60008261192b5761192b611906565b500490565b60008261193f5761193f611906565b500690565b60006001600160a01b0380871683528086166020840152508360408301526080606083015261197660808301846114ae565b9695505050505050565b60006020828403121561199257600080fd5b8151610a788161145756fea2646970667358221220c17e461d4efa2cdc9698a95203d8ed0d82675f4d2b20d02728dd38ebdc67310364736f6c63430008110033",
  "immutableReferences": {
    "3994": [
      {
        "length": 32,
        "start": 2482
      }
    ]
  },
  "source": "pragma solidity ^0.8.0;\n\n// SPDX-License-Identifier: apache 2.0\n/*\n    Copyright 2022 Debond Protocol <info@debond.org>\n    Licensed under the Apache License, Version 2.0 (the \"License\");\n    you may not use this file except in compliance with the License.\n    You may obtain a copy of the License at\n    http://www.apache.org/licenses/LICENSE-2.0\n    Unless required by applicable law or agreed to in writing, software\n    distributed under the License is distributed on an \"AS IS\" BASIS,\n    WITHOUT WARRANTIES OR CONDITIONS OF ANY KIND, either express or implied.\n    See the License for the specific language governing permissions and\n    limitations under the License.\n*/\n\nimport \"@openzeppelin/contracts/token/ERC721/ERC721.sol\";\nimport \"@openzeppelin/contracts/token/ERC20/IERC20.sol\";\nimport \"./RandomNumber.sol\";\nimport \"./interfaces/IDNFT.sol\";\n\n\n//todo : grammaire( _ internal, majuscules etc), commentaires\n\ncontract DNFT is ERC721{\n\n    //address immutable governanceAddress;\n    address debondNFTTokenAddress;\n    address dgovAddress;\n    address dnft2;\n    address immutable owner;\n\n    constructor(address _owner, address _debondNFTTokenAddress, address _dgovAddress)  ERC721(\"DBOND\", \"DBD\") {\n        owner = _owner;\n        debondNFTTokenAddress = _debondNFTTokenAddress;\n        dgovAddress = _dgovAddress;\n    }\n\n    function initialize(address _dnft2) external {\n        require(msg.sender == owner);\n        dnft2 = _dnft2;\n    }\n\n    /*constructor(address _debondNFTTokenAddress, address _dgovAddress, address _dnft2 ) ERC721(\"DBOND\", \"DBD\") {\n        \n        dnft2 = _dnft2;\n    }*/\n\n    /*modifier onlyGov {\n        require(msg.sender == governanceAddress, \"Gov: Need rights\");\n        _;\n    }    \n\n    function mint(address to, uint id) external onlyGov {\n        _safeMint(to, id);\n    }\n\n    function burn(uint id) external {\n        require(msg.sender == ownerOf(id));\n        _burn(id);\n    }\n\n    function reveal(uint amount, address _to) external {\n        IERC20(debondNFTTokenAddress).transfer(msg.sender, amount *1000000000000000000); //safeTransfer\n        for (uint i; i < amount - 1; i++) {\n            //uint randomId = RandomNumber.getRandomNumber();\n            //_safeMint(_to, randomId);\n        }\n    }*/\n    uint maxNftNumber;\n    uint counter;\n\n    function reveal(uint amount, address _to) external {\n        require(counter + amount < maxNftNumber);\n        IERC20(debondNFTTokenAddress).transfer(msg.sender, amount *1000000000000000000); //safeTransfer\n        for (uint i; i < amount - 1; i++) {\n            _safeMint(_to, counter);\n            counter ++;\n        }\n\n    }\n\n    function forge(uint amount, address _to) external {\n        require(counter + amount < maxNftNumber);\n        IERC20(dgovAddress).transfer(msg.sender, amount *1000000000000000000); //safeTransfer\n        for (uint i; i < amount - 1; i++) {\n            _safeMint(_to, counter);\n            counter ++;\n        }\n\n    }\n\n    function compose (address _to, uint[] memory ids) external {\n        require(ids.length == 10);\n        for (uint i; i < ids.length - 1; i++) {\n            _safeTransfer(_to, address(this), ids[i], bytes(\"\"));\n        }\n        IDNFT(dnft2).mintPrivate(_to);\n    }\n\n\n\n\n\n\n\n        \n}",
  "sourcePath": "/home/fic2linux/Crypto/Debond/D-NFT/contracts/DNFT.sol",
  "compiler": {
    "name": "solc",
    "version": "0.8.17+commit.8df45f5f.Emscripten.clang"
  },
  "schemaVersion": "3.4.9",
  "updatedAt": "2022-10-10T13:10:36.435Z",
  "networkType": "ethereum",
  "devdoc": {
    "kind": "dev",
    "methods": {
      "approve(address,uint256)": {
        "details": "See {IERC721-approve}."
      },
      "balanceOf(address)": {
        "details": "See {IERC721-balanceOf}."
      },
      "getApproved(uint256)": {
        "details": "See {IERC721-getApproved}."
      },
      "isApprovedForAll(address,address)": {
        "details": "See {IERC721-isApprovedForAll}."
      },
      "name()": {
        "details": "See {IERC721Metadata-name}."
      },
      "ownerOf(uint256)": {
        "details": "See {IERC721-ownerOf}."
      },
      "safeTransferFrom(address,address,uint256)": {
        "details": "See {IERC721-safeTransferFrom}."
      },
      "safeTransferFrom(address,address,uint256,bytes)": {
        "details": "See {IERC721-safeTransferFrom}."
      },
      "setApprovalForAll(address,bool)": {
        "details": "See {IERC721-setApprovalForAll}."
      },
      "supportsInterface(bytes4)": {
        "details": "See {IERC165-supportsInterface}."
      },
      "symbol()": {
        "details": "See {IERC721Metadata-symbol}."
      },
      "tokenURI(uint256)": {
        "details": "See {IERC721Metadata-tokenURI}."
      },
      "transferFrom(address,address,uint256)": {
        "details": "See {IERC721-transferFrom}."
      }
    },
    "version": 1
  },
  "userdoc": {
    "kind": "user",
    "methods": {},
    "version": 1
  }
}