{
  "contractName": "DNFT1",
  "abi": [
    {
      "inputs": [
        {
          "internalType": "address",
          "name": "_governanceAddress",
          "type": "address"
        }
      ],
      "stateMutability": "nonpayable",
      "type": "constructor"
    },
    {
      "anonymous": false,
      "inputs": [
        {
          "indexed": true,
          "internalType": "address",
          "name": "owner",
          "type": "address"
        },
        {
          "indexed": true,
          "internalType": "address",
          "name": "approved",
          "type": "address"
        },
        {
          "indexed": true,
          "internalType": "uint256",
          "name": "tokenId",
          "type": "uint256"
        }
      ],
      "name": "Approval",
      "type": "event"
    },
    {
      "anonymous": false,
      "inputs": [
        {
          "indexed": true,
          "internalType": "address",
          "name": "owner",
          "type": "address"
        },
        {
          "indexed": true,
          "internalType": "address",
          "name": "operator",
          "type": "address"
        },
        {
          "indexed": false,
          "internalType": "bool",
          "name": "approved",
          "type": "bool"
        }
      ],
      "name": "ApprovalForAll",
      "type": "event"
    },
    {
      "anonymous": false,
      "inputs": [
        {
          "indexed": true,
          "internalType": "address",
          "name": "from",
          "type": "address"
        },
        {
          "indexed": true,
          "internalType": "address",
          "name": "to",
          "type": "address"
        },
        {
          "indexed": true,
          "internalType": "uint256",
          "name": "tokenId",
          "type": "uint256"
        }
      ],
      "name": "Transfer",
      "type": "event"
    },
    {
      "inputs": [
        {
          "internalType": "address",
          "name": "to",
          "type": "address"
        },
        {
          "internalType": "uint256",
          "name": "tokenId",
          "type": "uint256"
        }
      ],
      "name": "approve",
      "outputs": [],
      "stateMutability": "nonpayable",
      "type": "function"
    },
    {
      "inputs": [
        {
          "internalType": "address",
          "name": "owner",
          "type": "address"
        }
      ],
      "name": "balanceOf",
      "outputs": [
        {
          "internalType": "uint256",
          "name": "",
          "type": "uint256"
        }
      ],
      "stateMutability": "view",
      "type": "function"
    },
    {
      "inputs": [
        {
          "internalType": "uint256",
          "name": "tokenId",
          "type": "uint256"
        }
      ],
      "name": "getApproved",
      "outputs": [
        {
          "internalType": "address",
          "name": "",
          "type": "address"
        }
      ],
      "stateMutability": "view",
      "type": "function"
    },
    {
      "inputs": [
        {
          "internalType": "address",
          "name": "owner",
          "type": "address"
        },
        {
          "internalType": "address",
          "name": "operator",
          "type": "address"
        }
      ],
      "name": "isApprovedForAll",
      "outputs": [
        {
          "internalType": "bool",
          "name": "",
          "type": "bool"
        }
      ],
      "stateMutability": "view",
      "type": "function"
    },
    {
      "inputs": [],
      "name": "name",
      "outputs": [
        {
          "internalType": "string",
          "name": "",
          "type": "string"
        }
      ],
      "stateMutability": "view",
      "type": "function"
    },
    {
      "inputs": [
        {
          "internalType": "uint256",
          "name": "tokenId",
          "type": "uint256"
        }
      ],
      "name": "ownerOf",
      "outputs": [
        {
          "internalType": "address",
          "name": "",
          "type": "address"
        }
      ],
      "stateMutability": "view",
      "type": "function"
    },
    {
      "inputs": [
        {
          "internalType": "address",
          "name": "from",
          "type": "address"
        },
        {
          "internalType": "address",
          "name": "to",
          "type": "address"
        },
        {
          "internalType": "uint256",
          "name": "tokenId",
          "type": "uint256"
        }
      ],
      "name": "safeTransferFrom",
      "outputs": [],
      "stateMutability": "nonpayable",
      "type": "function"
    },
    {
      "inputs": [
        {
          "internalType": "address",
          "name": "from",
          "type": "address"
        },
        {
          "internalType": "address",
          "name": "to",
          "type": "address"
        },
        {
          "internalType": "uint256",
          "name": "tokenId",
          "type": "uint256"
        },
        {
          "internalType": "bytes",
          "name": "data",
          "type": "bytes"
        }
      ],
      "name": "safeTransferFrom",
      "outputs": [],
      "stateMutability": "nonpayable",
      "type": "function"
    },
    {
      "inputs": [
        {
          "internalType": "address",
          "name": "operator",
          "type": "address"
        },
        {
          "internalType": "bool",
          "name": "approved",
          "type": "bool"
        }
      ],
      "name": "setApprovalForAll",
      "outputs": [],
      "stateMutability": "nonpayable",
      "type": "function"
    },
    {
      "inputs": [
        {
          "internalType": "bytes4",
          "name": "interfaceId",
          "type": "bytes4"
        }
      ],
      "name": "supportsInterface",
      "outputs": [
        {
          "internalType": "bool",
          "name": "",
          "type": "bool"
        }
      ],
      "stateMutability": "view",
      "type": "function"
    },
    {
      "inputs": [],
      "name": "symbol",
      "outputs": [
        {
          "internalType": "string",
          "name": "",
          "type": "string"
        }
      ],
      "stateMutability": "view",
      "type": "function"
    },
    {
      "inputs": [
        {
          "internalType": "uint256",
          "name": "tokenId",
          "type": "uint256"
        }
      ],
      "name": "tokenURI",
      "outputs": [
        {
          "internalType": "string",
          "name": "",
          "type": "string"
        }
      ],
      "stateMutability": "view",
      "type": "function"
    },
    {
      "inputs": [
        {
          "internalType": "address",
          "name": "from",
          "type": "address"
        },
        {
          "internalType": "address",
          "name": "to",
          "type": "address"
        },
        {
          "internalType": "uint256",
          "name": "tokenId",
          "type": "uint256"
        }
      ],
      "name": "transferFrom",
      "outputs": [],
      "stateMutability": "nonpayable",
      "type": "function"
    },
    {
      "inputs": [
        {
          "internalType": "address",
          "name": "to",
          "type": "address"
        }
      ],
      "name": "mint",
      "outputs": [],
      "stateMutability": "nonpayable",
      "type": "function"
    },
    {
      "inputs": [
        {
          "internalType": "uint256",
          "name": "id",
          "type": "uint256"
        }
      ],
      "name": "burn",
      "outputs": [],
      "stateMutability": "nonpayable",
      "type": "function"
    }
  ],
  "bytecode": "0x60a06040523480156200001157600080fd5b50604051620018f9380380620018f98339810160408190526200003491620000ab565b6040518060400160405280600b81526020016a4465626f6e64204e46543360a81b81525060405180604001604052806005815260200164444e46543360d81b815250816000908162000087919062000182565b50600162000096828262000182565b5050506001600160a01b03166080526200024e565b600060208284031215620000be57600080fd5b81516001600160a01b0381168114620000d657600080fd5b9392505050565b634e487b7160e01b600052604160045260246000fd5b600181811c908216806200010857607f821691505b6020821081036200012957634e487b7160e01b600052602260045260246000fd5b50919050565b601f8211156200017d57600081815260208120601f850160051c81016020861015620001585750805b601f850160051c820191505b81811015620001795782815560010162000164565b5050505b505050565b81516001600160401b038111156200019e576200019e620000dd565b620001b681620001af8454620000f3565b846200012f565b602080601f831160018114620001ee5760008415620001d55750858301515b600019600386901b1c1916600185901b17855562000179565b600085815260208120601f198616915b828110156200021f57888601518255948401946001909101908401620001fe565b50858210156200023e5787850151600019600388901b60f8161c191681555b5050505050600190811b01905550565b60805161168f6200026a6000396000610662015261168f6000f3fe608060405234801561001057600080fd5b50600436106100f55760003560e01c80636352211e11610097578063a22cb46511610066578063a22cb465146101ff578063b88d4fde14610212578063c87b56dd14610225578063e985e9c51461023857600080fd5b80636352211e146101b05780636a627842146101c357806370a08231146101d657806395d89b41146101f757600080fd5b8063095ea7b3116100d3578063095ea7b31461016257806323b872dd1461017757806342842e0e1461018a57806342966c681461019d57600080fd5b806301ffc9a7146100fa57806306fdde0314610122578063081812fc14610137575b600080fd5b61010d610108366004611257565b610274565b60405190151581526020015b60405180910390f35b61012a610311565b60405161011991906112c4565b61014a6101453660046112d7565b6103a3565b6040516001600160a01b039091168152602001610119565b61017561017036600461130c565b6103ca565b005b610175610185366004611336565b61051e565b610175610198366004611336565b6105a5565b6101756101ab3660046112d7565b6105c0565b61014a6101be3660046112d7565b6105f2565b6101756101d1366004611372565b610657565b6101e96101e4366004611372565b6106f3565b604051908152602001610119565b61012a61078d565b61017561020d36600461138d565b61079c565b6101756102203660046113df565b6107ab565b61012a6102333660046112d7565b610839565b61010d6102463660046114bb565b6001600160a01b03918216600090815260056020908152604080832093909416825291909152205460ff1690565b60006001600160e01b031982167f80ac58cd0000000000000000000000000000000000000000000000000000000014806102d757506001600160e01b031982167f5b5e139f00000000000000000000000000000000000000000000000000000000145b8061030b57507f01ffc9a7000000000000000000000000000000000000000000000000000000006001600160e01b03198316145b92915050565b606060008054610320906114ee565b80601f016020809104026020016040519081016040528092919081815260200182805461034c906114ee565b80156103995780601f1061036e57610100808354040283529160200191610399565b820191906000526020600020905b81548152906001019060200180831161037c57829003601f168201915b5050505050905090565b60006103ae826108ad565b506000908152600460205260409020546001600160a01b031690565b60006103d5826105f2565b9050806001600160a01b0316836001600160a01b0316036104635760405162461bcd60e51b815260206004820152602160248201527f4552433732313a20617070726f76616c20746f2063757272656e74206f776e6560448201527f720000000000000000000000000000000000000000000000000000000000000060648201526084015b60405180910390fd5b336001600160a01b038216148061049d57506001600160a01b038116600090815260056020908152604080832033845290915290205460ff165b61050f5760405162461bcd60e51b815260206004820152603e60248201527f4552433732313a20617070726f76652063616c6c6572206973206e6f7420746f60448201527f6b656e206f776e6572206e6f7220617070726f76656420666f7220616c6c0000606482015260840161045a565b6105198383610911565b505050565b610528338261098c565b61059a5760405162461bcd60e51b815260206004820152602e60248201527f4552433732313a2063616c6c6572206973206e6f7420746f6b656e206f776e6560448201527f72206e6f7220617070726f766564000000000000000000000000000000000000606482015260840161045a565b610519838383610a0b565b610519838383604051806020016040528060008152506107ab565b6105c9816105f2565b6001600160a01b0316336001600160a01b0316146105e657600080fd5b6105ef81610be5565b50565b6000818152600260205260408120546001600160a01b03168061030b5760405162461bcd60e51b815260206004820152601860248201527f4552433732313a20696e76616c696420746f6b656e2049440000000000000000604482015260640161045a565b336001600160a01b037f000000000000000000000000000000000000000000000000000000000000000016146106cf5760405162461bcd60e51b815260206004820152601060248201527f476f763a204e6565642072696768747300000000000000000000000000000000604482015260640161045a565b6106db81600854610c8d565b600880549060006106eb8361153e565b919050555050565b60006001600160a01b0382166107715760405162461bcd60e51b815260206004820152602960248201527f4552433732313a2061646472657373207a65726f206973206e6f74206120766160448201527f6c6964206f776e65720000000000000000000000000000000000000000000000606482015260840161045a565b506001600160a01b031660009081526003602052604090205490565b606060018054610320906114ee565b6107a7338383610ca7565b5050565b6107b5338361098c565b6108275760405162461bcd60e51b815260206004820152602e60248201527f4552433732313a2063616c6c6572206973206e6f7420746f6b656e206f776e6560448201527f72206e6f7220617070726f766564000000000000000000000000000000000000606482015260840161045a565b61083384848484610d75565b50505050565b6060610844826108ad565b600061085b60408051602081019091526000815290565b9050600081511161087b57604051806020016040528060008152506108a6565b8061088584610df3565b604051602001610896929190611557565b6040516020818303038152906040525b9392505050565b6000818152600260205260409020546001600160a01b03166105ef5760405162461bcd60e51b815260206004820152601860248201527f4552433732313a20696e76616c696420746f6b656e2049440000000000000000604482015260640161045a565b6000818152600460205260409020805473ffffffffffffffffffffffffffffffffffffffff19166001600160a01b0384169081179091558190610953826105f2565b6001600160a01b03167f8c5be1e5ebec7d5bd14f71427d1e84f3dd0314c0f7b2291e5b200ac8c7c3b92560405160405180910390a45050565b600080610998836105f2565b9050806001600160a01b0316846001600160a01b031614806109df57506001600160a01b0380821660009081526005602090815260408083209388168352929052205460ff165b80610a035750836001600160a01b03166109f8846103a3565b6001600160a01b0316145b949350505050565b826001600160a01b0316610a1e826105f2565b6001600160a01b031614610a9a5760405162461bcd60e51b815260206004820152602560248201527f4552433732313a207472616e736665722066726f6d20696e636f72726563742060448201527f6f776e6572000000000000000000000000000000000000000000000000000000606482015260840161045a565b6001600160a01b038216610b155760405162461bcd60e51b8152602060048201526024808201527f4552433732313a207472616e7366657220746f20746865207a65726f2061646460448201527f7265737300000000000000000000000000000000000000000000000000000000606482015260840161045a565b610b20600082610911565b6001600160a01b0383166000908152600360205260408120805460019290610b49908490611586565b90915550506001600160a01b0382166000908152600360205260408120805460019290610b77908490611599565b9091555050600081815260026020526040808220805473ffffffffffffffffffffffffffffffffffffffff19166001600160a01b0386811691821790925591518493918716917fddf252ad1be2c89b69c2b068fc378daa952ba7f163c4a11628f55a4df523b3ef91a4505050565b6000610bf0826105f2565b9050610bfd600083610911565b6001600160a01b0381166000908152600360205260408120805460019290610c26908490611586565b9091555050600082815260026020526040808220805473ffffffffffffffffffffffffffffffffffffffff19169055518391906001600160a01b038416907fddf252ad1be2c89b69c2b068fc378daa952ba7f163c4a11628f55a4df523b3ef908390a45050565b6107a7828260405180602001604052806000815250610f28565b816001600160a01b0316836001600160a01b031603610d085760405162461bcd60e51b815260206004820152601960248201527f4552433732313a20617070726f766520746f2063616c6c657200000000000000604482015260640161045a565b6001600160a01b03838116600081815260056020908152604080832094871680845294825291829020805460ff191686151590811790915591519182527f17307eab39ab6107e8899845ad3d59bd9653f200f220920489ca2b5937696c31910160405180910390a3505050565b610d80848484610a0b565b610d8c84848484610fa6565b6108335760405162461bcd60e51b815260206004820152603260248201527f4552433732313a207472616e7366657220746f206e6f6e20455243373231526560448201527131b2b4bb32b91034b6b83632b6b2b73a32b960711b606482015260840161045a565b606081600003610e3657505060408051808201909152600181527f3000000000000000000000000000000000000000000000000000000000000000602082015290565b8160005b8115610e605780610e4a8161153e565b9150610e599050600a836115c2565b9150610e3a565b60008167ffffffffffffffff811115610e7b57610e7b6113c9565b6040519080825280601f01601f191660200182016040528015610ea5576020820181803683370190505b5090505b8415610a0357610eba600183611586565b9150610ec7600a866115d6565b610ed2906030611599565b60f81b818381518110610ee757610ee76115ea565b60200101907effffffffffffffffffffffffffffffffffffffffffffffffffffffffffffff1916908160001a905350610f21600a866115c2565b9450610ea9565b610f3283836110f2565b610f3f6000848484610fa6565b6105195760405162461bcd60e51b815260206004820152603260248201527f4552433732313a207472616e7366657220746f206e6f6e20455243373231526560448201527131b2b4bb32b91034b6b83632b6b2b73a32b960711b606482015260840161045a565b60006001600160a01b0384163b156110e757604051630a85bd0160e11b81526001600160a01b0385169063150b7a0290610fea903390899088908890600401611600565b6020604051808303816000875af1925050508015611025575060408051601f3d908101601f191682019092526110229181019061163c565b60015b6110cd573d808015611053576040519150601f19603f3d011682016040523d82523d6000602084013e611058565b606091505b5080516000036110c55760405162461bcd60e51b815260206004820152603260248201527f4552433732313a207472616e7366657220746f206e6f6e20455243373231526560448201527131b2b4bb32b91034b6b83632b6b2b73a32b960711b606482015260840161045a565b805181602001fd5b6001600160e01b031916630a85bd0160e11b149050610a03565b506001949350505050565b6001600160a01b0382166111485760405162461bcd60e51b815260206004820181905260248201527f4552433732313a206d696e7420746f20746865207a65726f2061646472657373604482015260640161045a565b6000818152600260205260409020546001600160a01b0316156111ad5760405162461bcd60e51b815260206004820152601c60248201527f4552433732313a20746f6b656e20616c7265616479206d696e74656400000000604482015260640161045a565b6001600160a01b03821660009081526003602052604081208054600192906111d6908490611599565b9091555050600081815260026020526040808220805473ffffffffffffffffffffffffffffffffffffffff19166001600160a01b03861690811790915590518392907fddf252ad1be2c89b69c2b068fc378daa952ba7f163c4a11628f55a4df523b3ef908290a45050565b6001600160e01b0319811681146105ef57600080fd5b60006020828403121561126957600080fd5b81356108a681611241565b60005b8381101561128f578181015183820152602001611277565b50506000910152565b600081518084526112b0816020860160208601611274565b601f01601f19169290920160200192915050565b6020815260006108a66020830184611298565b6000602082840312156112e957600080fd5b5035919050565b80356001600160a01b038116811461130757600080fd5b919050565b6000806040838503121561131f57600080fd5b611328836112f0565b946020939093013593505050565b60008060006060848603121561134b57600080fd5b611354846112f0565b9250611362602085016112f0565b9150604084013590509250925092565b60006020828403121561138457600080fd5b6108a6826112f0565b600080604083850312156113a057600080fd5b6113a9836112f0565b9150602083013580151581146113be57600080fd5b809150509250929050565b634e487b7160e01b600052604160045260246000fd5b600080600080608085870312156113f557600080fd5b6113fe856112f0565b935061140c602086016112f0565b925060408501359150606085013567ffffffffffffffff8082111561143057600080fd5b818701915087601f83011261144457600080fd5b813581811115611456576114566113c9565b604051601f8201601f19908116603f0116810190838211818310171561147e5761147e6113c9565b816040528281528a602084870101111561149757600080fd5b82602086016020830137600060208483010152809550505050505092959194509250565b600080604083850312156114ce57600080fd5b6114d7836112f0565b91506114e5602084016112f0565b90509250929050565b600181811c9082168061150257607f821691505b60208210810361152257634e487b7160e01b600052602260045260246000fd5b50919050565b634e487b7160e01b600052601160045260246000fd5b60006001820161155057611550611528565b5060010190565b60008351611569818460208801611274565b83519083019061157d818360208801611274565b01949350505050565b8181038181111561030b5761030b611528565b8082018082111561030b5761030b611528565b634e487b7160e01b600052601260045260246000fd5b6000826115d1576115d16115ac565b500490565b6000826115e5576115e56115ac565b500690565b634e487b7160e01b600052603260045260246000fd5b60006001600160a01b038087168352808616602084015250836040830152608060608301526116326080830184611298565b9695505050505050565b60006020828403121561164e57600080fd5b81516108a68161124156fea26469706673582212202dc6157b8f54ed6d74e3133ba5d1d015469546ea3e67759602ff510083d8788464736f6c63430008110033",
  "immutableReferences": {
    "2157": [
      {
        "length": 32,
        "start": 1634
      }
    ]
  },
  "source": "pragma solidity ^0.8.0;\n\n// SPDX-License-Identifier: apache 2.0\n/*\n    Copyright 2022 Debond Protocol <info@debond.org>\n    Licensed under the Apache License, Version 2.0 (the \"License\");\n    you may not use this file except in compliance with the License.\n    You may obtain a copy of the License at\n    http://www.apache.org/licenses/LICENSE-2.0\n    Unless required by applicable law or agreed to in writing, software\n    distributed under the License is distributed on an \"AS IS\" BASIS,\n    WITHOUT WARRANTIES OR CONDITIONS OF ANY KIND, either express or implied.\n    See the License for the specific language governing permissions and\n    limitations under the License.\n*/\n\nimport \"@openzeppelin/contracts/token/ERC721/ERC721.sol\";\nimport \"@openzeppelin/contracts/token/ERC20/IERC20.sol\";\nimport \"./RandomNumber.sol\";\nimport \"./interfaces/IDNFT.sol\";\n\ncontract DNFT1 is ERC721, IDNFT{\n\n    address immutable governanceAddress;\n    address dnft2;\n\n    constructor(address _governanceAddress ) ERC721(\"Debond NFT3\", \"DNFT3\"){\n        governanceAddress = _governanceAddress;\n    }\n\n    uint maxNftNumber;\n    uint counter;\n\n    modifier onlyGov {\n        require(msg.sender == governanceAddress, \"Gov: Need rights\");\n        _;\n    } \n\n    function mint(address to) external onlyGov {\n        _safeMint(to, counter);\n        counter++;\n    }\n\n    function burn(uint id) external {\n        require(msg.sender == ownerOf(id));\n        _burn(id);\n    }\n        \n}",
  "sourcePath": "/home/fic2linux/Crypto/Debond/D-NFT/contracts/DNFT1.sol",
  "compiler": {
    "name": "solc",
    "version": "0.8.17+commit.8df45f5f.Emscripten.clang"
  },
  "schemaVersion": "3.4.9",
  "updatedAt": "2022-10-11T13:06:43.283Z",
  "devdoc": {
    "kind": "dev",
    "methods": {
      "approve(address,uint256)": {
        "details": "See {IERC721-approve}."
      },
      "balanceOf(address)": {
        "details": "See {IERC721-balanceOf}."
      },
      "getApproved(uint256)": {
        "details": "See {IERC721-getApproved}."
      },
      "isApprovedForAll(address,address)": {
        "details": "See {IERC721-isApprovedForAll}."
      },
      "name()": {
        "details": "See {IERC721Metadata-name}."
      },
      "ownerOf(uint256)": {
        "details": "See {IERC721-ownerOf}."
      },
      "safeTransferFrom(address,address,uint256)": {
        "details": "See {IERC721-safeTransferFrom}."
      },
      "safeTransferFrom(address,address,uint256,bytes)": {
        "details": "See {IERC721-safeTransferFrom}."
      },
      "setApprovalForAll(address,bool)": {
        "details": "See {IERC721-setApprovalForAll}."
      },
      "supportsInterface(bytes4)": {
        "details": "See {IERC165-supportsInterface}."
      },
      "symbol()": {
        "details": "See {IERC721Metadata-symbol}."
      },
      "tokenURI(uint256)": {
        "details": "See {IERC721Metadata-tokenURI}."
      },
      "transferFrom(address,address,uint256)": {
        "details": "See {IERC721-transferFrom}."
      }
    },
    "version": 1
  },
  "userdoc": {
    "kind": "user",
    "methods": {},
    "version": 1
  }
}