{
  "contractName": "DNFT2",
  "abi": [
    {
      "inputs": [
        {
          "internalType": "address",
          "name": "_owner",
          "type": "address"
        }
      ],
      "stateMutability": "nonpayable",
      "type": "constructor"
    },
    {
      "anonymous": false,
      "inputs": [
        {
          "indexed": true,
          "internalType": "address",
          "name": "owner",
          "type": "address"
        },
        {
          "indexed": true,
          "internalType": "address",
          "name": "approved",
          "type": "address"
        },
        {
          "indexed": true,
          "internalType": "uint256",
          "name": "tokenId",
          "type": "uint256"
        }
      ],
      "name": "Approval",
      "type": "event"
    },
    {
      "anonymous": false,
      "inputs": [
        {
          "indexed": true,
          "internalType": "address",
          "name": "owner",
          "type": "address"
        },
        {
          "indexed": true,
          "internalType": "address",
          "name": "operator",
          "type": "address"
        },
        {
          "indexed": false,
          "internalType": "bool",
          "name": "approved",
          "type": "bool"
        }
      ],
      "name": "ApprovalForAll",
      "type": "event"
    },
    {
      "anonymous": false,
      "inputs": [
        {
          "indexed": true,
          "internalType": "address",
          "name": "from",
          "type": "address"
        },
        {
          "indexed": true,
          "internalType": "address",
          "name": "to",
          "type": "address"
        },
        {
          "indexed": true,
          "internalType": "uint256",
          "name": "tokenId",
          "type": "uint256"
        }
      ],
      "name": "Transfer",
      "type": "event"
    },
    {
      "inputs": [
        {
          "internalType": "address",
          "name": "to",
          "type": "address"
        },
        {
          "internalType": "uint256",
          "name": "tokenId",
          "type": "uint256"
        }
      ],
      "name": "approve",
      "outputs": [],
      "stateMutability": "nonpayable",
      "type": "function"
    },
    {
      "inputs": [
        {
          "internalType": "address",
          "name": "owner",
          "type": "address"
        }
      ],
      "name": "balanceOf",
      "outputs": [
        {
          "internalType": "uint256",
          "name": "",
          "type": "uint256"
        }
      ],
      "stateMutability": "view",
      "type": "function"
    },
    {
      "inputs": [
        {
          "internalType": "uint256",
          "name": "tokenId",
          "type": "uint256"
        }
      ],
      "name": "getApproved",
      "outputs": [
        {
          "internalType": "address",
          "name": "",
          "type": "address"
        }
      ],
      "stateMutability": "view",
      "type": "function"
    },
    {
      "inputs": [
        {
          "internalType": "address",
          "name": "owner",
          "type": "address"
        },
        {
          "internalType": "address",
          "name": "operator",
          "type": "address"
        }
      ],
      "name": "isApprovedForAll",
      "outputs": [
        {
          "internalType": "bool",
          "name": "",
          "type": "bool"
        }
      ],
      "stateMutability": "view",
      "type": "function"
    },
    {
      "inputs": [],
      "name": "name",
      "outputs": [
        {
          "internalType": "string",
          "name": "",
          "type": "string"
        }
      ],
      "stateMutability": "view",
      "type": "function"
    },
    {
      "inputs": [
        {
          "internalType": "uint256",
          "name": "tokenId",
          "type": "uint256"
        }
      ],
      "name": "ownerOf",
      "outputs": [
        {
          "internalType": "address",
          "name": "",
          "type": "address"
        }
      ],
      "stateMutability": "view",
      "type": "function"
    },
    {
      "inputs": [
        {
          "internalType": "address",
          "name": "from",
          "type": "address"
        },
        {
          "internalType": "address",
          "name": "to",
          "type": "address"
        },
        {
          "internalType": "uint256",
          "name": "tokenId",
          "type": "uint256"
        }
      ],
      "name": "safeTransferFrom",
      "outputs": [],
      "stateMutability": "nonpayable",
      "type": "function"
    },
    {
      "inputs": [
        {
          "internalType": "address",
          "name": "from",
          "type": "address"
        },
        {
          "internalType": "address",
          "name": "to",
          "type": "address"
        },
        {
          "internalType": "uint256",
          "name": "tokenId",
          "type": "uint256"
        },
        {
          "internalType": "bytes",
          "name": "data",
          "type": "bytes"
        }
      ],
      "name": "safeTransferFrom",
      "outputs": [],
      "stateMutability": "nonpayable",
      "type": "function"
    },
    {
      "inputs": [
        {
          "internalType": "address",
          "name": "operator",
          "type": "address"
        },
        {
          "internalType": "bool",
          "name": "approved",
          "type": "bool"
        }
      ],
      "name": "setApprovalForAll",
      "outputs": [],
      "stateMutability": "nonpayable",
      "type": "function"
    },
    {
      "inputs": [
        {
          "internalType": "bytes4",
          "name": "interfaceId",
          "type": "bytes4"
        }
      ],
      "name": "supportsInterface",
      "outputs": [
        {
          "internalType": "bool",
          "name": "",
          "type": "bool"
        }
      ],
      "stateMutability": "view",
      "type": "function"
    },
    {
      "inputs": [],
      "name": "symbol",
      "outputs": [
        {
          "internalType": "string",
          "name": "",
          "type": "string"
        }
      ],
      "stateMutability": "view",
      "type": "function"
    },
    {
      "inputs": [
        {
          "internalType": "uint256",
          "name": "tokenId",
          "type": "uint256"
        }
      ],
      "name": "tokenURI",
      "outputs": [
        {
          "internalType": "string",
          "name": "",
          "type": "string"
        }
      ],
      "stateMutability": "view",
      "type": "function"
    },
    {
      "inputs": [
        {
          "internalType": "address",
          "name": "from",
          "type": "address"
        },
        {
          "internalType": "address",
          "name": "to",
          "type": "address"
        },
        {
          "internalType": "uint256",
          "name": "tokenId",
          "type": "uint256"
        }
      ],
      "name": "transferFrom",
      "outputs": [],
      "stateMutability": "nonpayable",
      "type": "function"
    },
    {
      "inputs": [
        {
          "internalType": "address",
          "name": "_dnft1",
          "type": "address"
        },
        {
          "internalType": "address",
          "name": "_dnft3",
          "type": "address"
        }
      ],
      "name": "initialize",
      "outputs": [],
      "stateMutability": "nonpayable",
      "type": "function"
    },
    {
      "inputs": [
        {
          "internalType": "address",
          "name": "_to",
          "type": "address"
        },
        {
          "internalType": "uint256[]",
          "name": "ids",
          "type": "uint256[]"
        }
      ],
      "name": "compose",
      "outputs": [],
      "stateMutability": "nonpayable",
      "type": "function"
    },
    {
      "inputs": [
        {
          "internalType": "address",
          "name": "_to",
          "type": "address"
        }
      ],
      "name": "mintPrivate",
      "outputs": [],
      "stateMutability": "nonpayable",
      "type": "function"
    }
  ],
  "bytecode": "0x60a06040523480156200001157600080fd5b5060405162001a0638038062001a068339810160408190526200003491620000ab565b6040518060400160405280600b81526020016a2232b137b7321027232a1960a91b815250604051806040016040528060058152602001642227232a1960d91b815250816000908162000087919062000182565b50600162000096828262000182565b5050506001600160a01b03166080526200024e565b600060208284031215620000be57600080fd5b81516001600160a01b0381168114620000d657600080fd5b9392505050565b634e487b7160e01b600052604160045260246000fd5b600181811c908216806200010857607f821691505b6020821081036200012957634e487b7160e01b600052602260045260246000fd5b50919050565b601f8211156200017d57600081815260208120601f850160051c81016020861015620001585750805b601f850160051c820191505b81811015620001795782815560010162000164565b5050505b505050565b81516001600160401b038111156200019e576200019e620000dd565b620001b681620001af8454620000f3565b846200012f565b602080601f831160018114620001ee5760008415620001d55750858301515b600019600386901b1c1916600185901b17855562000179565b600085815260208120601f198616915b828110156200021f57888601518255948401946001909101908401620001fe565b50858210156200023e5787850151600019600388901b60f8161c191681555b5050505050600190811b01905550565b60805161179c6200026a6000396000610624015261179c6000f3fe608060405234801561001057600080fd5b50600436106101005760003560e01c80636352211e11610097578063b88d4fde11610066578063b88d4fde1461021d578063c87b56dd14610230578063cda9c0ea14610243578063e985e9c51461025657600080fd5b80636352211e146101ce57806370a08231146101e157806395d89b4114610202578063a22cb4651461020a57600080fd5b8063095ea7b3116100d3578063095ea7b31461018257806323b872dd1461019557806342842e0e146101a8578063485cc955146101bb57600080fd5b806301ffc9a71461010557806306c723db1461012d57806306fdde0314610142578063081812fc14610157575b600080fd5b610118610113366004611296565b610292565b60405190151581526020015b60405180910390f35b61014061013b3660046112cf565b61032f565b005b61014a61036a565b604051610124919061133a565b61016a61016536600461134d565b6103fc565b6040516001600160a01b039091168152602001610124565b610140610190366004611366565b610423565b6101406101a3366004611390565b610577565b6101406101b6366004611390565b6105fe565b6101406101c93660046113cc565b610619565b61016a6101dc36600461134d565b610689565b6101f46101ef3660046112cf565b6106ee565b604051908152602001610124565b61014a610788565b6101406102183660046113ff565b610797565b61014061022b366004611482565b6107a6565b61014a61023e36600461134d565b610834565b610140610251366004611542565b6108a8565b6101186102643660046113cc565b6001600160a01b03918216600090815260056020908152604080832093909416825291909152205460ff1690565b60006001600160e01b031982167f80ac58cd0000000000000000000000000000000000000000000000000000000014806102f557506001600160e01b031982167f5b5e139f00000000000000000000000000000000000000000000000000000000145b8061032957507f01ffc9a7000000000000000000000000000000000000000000000000000000006001600160e01b03198316145b92915050565b6006546001600160a01b0316331461034657600080fd5b61035281600954610991565b6009805490600061036283611611565b919050555050565b6060600080546103799061162a565b80601f01602080910402602001604051908101604052809291908181526020018280546103a59061162a565b80156103f25780601f106103c7576101008083540402835291602001916103f2565b820191906000526020600020905b8154815290600101906020018083116103d557829003601f168201915b5050505050905090565b6000610407826109ab565b506000908152600460205260409020546001600160a01b031690565b600061042e82610689565b9050806001600160a01b0316836001600160a01b0316036104bc5760405162461bcd60e51b815260206004820152602160248201527f4552433732313a20617070726f76616c20746f2063757272656e74206f776e6560448201527f720000000000000000000000000000000000000000000000000000000000000060648201526084015b60405180910390fd5b336001600160a01b03821614806104f657506001600160a01b038116600090815260056020908152604080832033845290915290205460ff165b6105685760405162461bcd60e51b815260206004820152603e60248201527f4552433732313a20617070726f76652063616c6c6572206973206e6f7420746f60448201527f6b656e206f776e6572206e6f7220617070726f76656420666f7220616c6c000060648201526084016104b3565b6105728383610a12565b505050565b6105813382610a8d565b6105f35760405162461bcd60e51b815260206004820152602e60248201527f4552433732313a2063616c6c6572206973206e6f7420746f6b656e206f776e6560448201527f72206e6f7220617070726f76656400000000000000000000000000000000000060648201526084016104b3565b610572838383610b0c565b610572838383604051806020016040528060008152506107a6565b336001600160a01b037f0000000000000000000000000000000000000000000000000000000000000000161461064e57600080fd5b600680546001600160a01b0393841673ffffffffffffffffffffffffffffffffffffffff199182161790915560078054929093169116179055565b6000818152600260205260408120546001600160a01b0316806103295760405162461bcd60e51b815260206004820152601860248201527f4552433732313a20696e76616c696420746f6b656e204944000000000000000060448201526064016104b3565b60006001600160a01b03821661076c5760405162461bcd60e51b815260206004820152602960248201527f4552433732313a2061646472657373207a65726f206973206e6f74206120766160448201527f6c6964206f776e6572000000000000000000000000000000000000000000000060648201526084016104b3565b506001600160a01b031660009081526003602052604090205490565b6060600180546103799061162a565b6107a2338383610ce6565b5050565b6107b03383610a8d565b6108225760405162461bcd60e51b815260206004820152602e60248201527f4552433732313a2063616c6c6572206973206e6f7420746f6b656e206f776e6560448201527f72206e6f7220617070726f76656400000000000000000000000000000000000060648201526084016104b3565b61082e84848484610db4565b50505050565b606061083f826109ab565b600061085660408051602081019091526000815290565b9050600081511161087657604051806020016040528060008152506108a1565b8061088084610e32565b604051602001610891929190611664565b6040516020818303038152906040525b9392505050565b8051600a146108b657600080fd5b60005b600182516108c79190611693565b8110156109145761090283308484815181106108e5576108e56116a6565b602002602001015160405180602001604052806000815250610db4565b8061090c81611611565b9150506108b9565b506007546040517f06c723db0000000000000000000000000000000000000000000000000000000081526001600160a01b038481166004830152909116906306c723db90602401600060405180830381600087803b15801561097557600080fd5b505af1158015610989573d6000803e3d6000fd5b505050505050565b6107a2828260405180602001604052806000815250610f67565b6000818152600260205260409020546001600160a01b0316610a0f5760405162461bcd60e51b815260206004820152601860248201527f4552433732313a20696e76616c696420746f6b656e204944000000000000000060448201526064016104b3565b50565b6000818152600460205260409020805473ffffffffffffffffffffffffffffffffffffffff19166001600160a01b0384169081179091558190610a5482610689565b6001600160a01b03167f8c5be1e5ebec7d5bd14f71427d1e84f3dd0314c0f7b2291e5b200ac8c7c3b92560405160405180910390a45050565b600080610a9983610689565b9050806001600160a01b0316846001600160a01b03161480610ae057506001600160a01b0380821660009081526005602090815260408083209388168352929052205460ff165b80610b045750836001600160a01b0316610af9846103fc565b6001600160a01b0316145b949350505050565b826001600160a01b0316610b1f82610689565b6001600160a01b031614610b9b5760405162461bcd60e51b815260206004820152602560248201527f4552433732313a207472616e736665722066726f6d20696e636f72726563742060448201527f6f776e657200000000000000000000000000000000000000000000000000000060648201526084016104b3565b6001600160a01b038216610c165760405162461bcd60e51b8152602060048201526024808201527f4552433732313a207472616e7366657220746f20746865207a65726f2061646460448201527f726573730000000000000000000000000000000000000000000000000000000060648201526084016104b3565b610c21600082610a12565b6001600160a01b0383166000908152600360205260408120805460019290610c4a908490611693565b90915550506001600160a01b0382166000908152600360205260408120805460019290610c789084906116bc565b9091555050600081815260026020526040808220805473ffffffffffffffffffffffffffffffffffffffff19166001600160a01b0386811691821790925591518493918716917fddf252ad1be2c89b69c2b068fc378daa952ba7f163c4a11628f55a4df523b3ef91a4505050565b816001600160a01b0316836001600160a01b031603610d475760405162461bcd60e51b815260206004820152601960248201527f4552433732313a20617070726f766520746f2063616c6c65720000000000000060448201526064016104b3565b6001600160a01b03838116600081815260056020908152604080832094871680845294825291829020805460ff191686151590811790915591519182527f17307eab39ab6107e8899845ad3d59bd9653f200f220920489ca2b5937696c31910160405180910390a3505050565b610dbf848484610b0c565b610dcb84848484610fe5565b61082e5760405162461bcd60e51b815260206004820152603260248201527f4552433732313a207472616e7366657220746f206e6f6e20455243373231526560448201527131b2b4bb32b91034b6b83632b6b2b73a32b960711b60648201526084016104b3565b606081600003610e7557505060408051808201909152600181527f3000000000000000000000000000000000000000000000000000000000000000602082015290565b8160005b8115610e9f5780610e8981611611565b9150610e989050600a836116e5565b9150610e79565b60008167ffffffffffffffff811115610eba57610eba61143b565b6040519080825280601f01601f191660200182016040528015610ee4576020820181803683370190505b5090505b8415610b0457610ef9600183611693565b9150610f06600a866116f9565b610f119060306116bc565b60f81b818381518110610f2657610f266116a6565b60200101907effffffffffffffffffffffffffffffffffffffffffffffffffffffffffffff1916908160001a905350610f60600a866116e5565b9450610ee8565b610f718383611131565b610f7e6000848484610fe5565b6105725760405162461bcd60e51b815260206004820152603260248201527f4552433732313a207472616e7366657220746f206e6f6e20455243373231526560448201527131b2b4bb32b91034b6b83632b6b2b73a32b960711b60648201526084016104b3565b60006001600160a01b0384163b1561112657604051630a85bd0160e11b81526001600160a01b0385169063150b7a029061102990339089908890889060040161170d565b6020604051808303816000875af1925050508015611064575060408051601f3d908101601f1916820190925261106191810190611749565b60015b61110c573d808015611092576040519150601f19603f3d011682016040523d82523d6000602084013e611097565b606091505b5080516000036111045760405162461bcd60e51b815260206004820152603260248201527f4552433732313a207472616e7366657220746f206e6f6e20455243373231526560448201527131b2b4bb32b91034b6b83632b6b2b73a32b960711b60648201526084016104b3565b805181602001fd5b6001600160e01b031916630a85bd0160e11b149050610b04565b506001949350505050565b6001600160a01b0382166111875760405162461bcd60e51b815260206004820181905260248201527f4552433732313a206d696e7420746f20746865207a65726f206164647265737360448201526064016104b3565b6000818152600260205260409020546001600160a01b0316156111ec5760405162461bcd60e51b815260206004820152601c60248201527f4552433732313a20746f6b656e20616c7265616479206d696e7465640000000060448201526064016104b3565b6001600160a01b03821660009081526003602052604081208054600192906112159084906116bc565b9091555050600081815260026020526040808220805473ffffffffffffffffffffffffffffffffffffffff19166001600160a01b03861690811790915590518392907fddf252ad1be2c89b69c2b068fc378daa952ba7f163c4a11628f55a4df523b3ef908290a45050565b6001600160e01b031981168114610a0f57600080fd5b6000602082840312156112a857600080fd5b81356108a181611280565b80356001600160a01b03811681146112ca57600080fd5b919050565b6000602082840312156112e157600080fd5b6108a1826112b3565b60005b838110156113055781810151838201526020016112ed565b50506000910152565b600081518084526113268160208601602086016112ea565b601f01601f19169290920160200192915050565b6020815260006108a1602083018461130e565b60006020828403121561135f57600080fd5b5035919050565b6000806040838503121561137957600080fd5b611382836112b3565b946020939093013593505050565b6000806000606084860312156113a557600080fd5b6113ae846112b3565b92506113bc602085016112b3565b9150604084013590509250925092565b600080604083850312156113df57600080fd5b6113e8836112b3565b91506113f6602084016112b3565b90509250929050565b6000806040838503121561141257600080fd5b61141b836112b3565b91506020830135801515811461143057600080fd5b809150509250929050565b634e487b7160e01b600052604160045260246000fd5b604051601f8201601f1916810167ffffffffffffffff8111828210171561147a5761147a61143b565b604052919050565b6000806000806080858703121561149857600080fd5b6114a1856112b3565b935060206114b08187016112b3565b935060408601359250606086013567ffffffffffffffff808211156114d457600080fd5b818801915088601f8301126114e857600080fd5b8135818111156114fa576114fa61143b565b61150c601f8201601f19168501611451565b9150808252898482850101111561152257600080fd5b808484018584013760008482840101525080935050505092959194509250565b6000806040838503121561155557600080fd5b61155e836112b3565b915060208084013567ffffffffffffffff8082111561157c57600080fd5b818601915086601f83011261159057600080fd5b8135818111156115a2576115a261143b565b8060051b91506115b3848301611451565b81815291830184019184810190898411156115cd57600080fd5b938501935b838510156115eb578435825293850193908501906115d2565b8096505050505050509250929050565b634e487b7160e01b600052601160045260246000fd5b600060018201611623576116236115fb565b5060010190565b600181811c9082168061163e57607f821691505b60208210810361165e57634e487b7160e01b600052602260045260246000fd5b50919050565b600083516116768184602088016112ea565b83519083019061168a8183602088016112ea565b01949350505050565b81810381811115610329576103296115fb565b634e487b7160e01b600052603260045260246000fd5b80820180821115610329576103296115fb565b634e487b7160e01b600052601260045260246000fd5b6000826116f4576116f46116cf565b500490565b600082611708576117086116cf565b500690565b60006001600160a01b0380871683528086166020840152508360408301526080606083015261173f608083018461130e565b9695505050505050565b60006020828403121561175b57600080fd5b81516108a18161128056fea2646970667358221220e571f8fb476184d11aac0d20c41f098f0b701245f4aff0a79ecf1c04ab743d6b64736f6c63430008110033",
  "immutableReferences": {
    "4206": [
      {
        "length": 32,
        "start": 1572
      }
    ]
  },
  "source": "pragma solidity ^0.8.0;\n\n// SPDX-License-Identifier: apache 2.0\n/*\n    Copyright 2022 Debond Protocol <info@debond.org>\n    Licensed under the Apache License, Version 2.0 (the \"License\");\n    you may not use this file except in compliance with the License.\n    You may obtain a copy of the License at\n    http://www.apache.org/licenses/LICENSE-2.0\n    Unless required by applicable law or agreed to in writing, software\n    distributed under the License is distributed on an \"AS IS\" BASIS,\n    WITHOUT WARRANTIES OR CONDITIONS OF ANY KIND, either express or implied.\n    See the License for the specific language governing permissions and\n    limitations under the License.\n*/\n\nimport \"@openzeppelin/contracts/token/ERC721/ERC721.sol\";\nimport \"@openzeppelin/contracts/token/ERC20/IERC20.sol\";\nimport \"./RandomNumber.sol\";\nimport \"./interfaces/IDNFT.sol\";\n\ncontract DNFT2 is ERC721, IDNFT{\n\n    //address immutable governanceAddress;\n    //address immutable debondNFTTokenAddress;\n    //address immutable dgovAddress;\n    address  dnft1;\n    address  dnft3;\n    address immutable owner;\n\n    constructor(address _owner) ERC721(\"Debond NFT2\", \"DNFT2\") {\n        owner = _owner;\n    }\n    function initialize(address _dnft1, address _dnft3 ) external {\n        require(msg.sender == owner);\n        dnft1 = _dnft1;\n        dnft3 = _dnft3;\n    }\n\n    uint maxNftNumber;\n    uint counter;\n\n\n\n    function compose (address _to, uint[] memory ids) external {\n        require(ids.length == 10);\n        for (uint i; i < ids.length - 1; i++) {\n            _safeTransfer(_to, address(this), ids[i], bytes(\"\"));\n        }\n        IDNFT(dnft3).mintPrivate(_to);\n    }\n\n    function mintPrivate(address _to) external {\n        require(msg.sender == dnft1);\n        _safeMint(_to, counter);\n        counter++;\n    }\n\n    /*function mint(address to) external {\n        require(msg.sender == dnft1);\n        _safeMint(to, counter);\n        counter++;\n    }*/\n\n\n\n\n\n\n\n        \n}",
  "sourcePath": "/home/fic2linux/Crypto/Debond/D-NFT/contracts/DNFT2.sol",
  "compiler": {
    "name": "solc",
    "version": "0.8.17+commit.8df45f5f.Emscripten.clang"
  },
  "schemaVersion": "3.4.9",
  "updatedAt": "2022-10-10T13:10:36.441Z",
  "networkType": "ethereum",
  "devdoc": {
    "kind": "dev",
    "methods": {
      "approve(address,uint256)": {
        "details": "See {IERC721-approve}."
      },
      "balanceOf(address)": {
        "details": "See {IERC721-balanceOf}."
      },
      "getApproved(uint256)": {
        "details": "See {IERC721-getApproved}."
      },
      "isApprovedForAll(address,address)": {
        "details": "See {IERC721-isApprovedForAll}."
      },
      "name()": {
        "details": "See {IERC721Metadata-name}."
      },
      "ownerOf(uint256)": {
        "details": "See {IERC721-ownerOf}."
      },
      "safeTransferFrom(address,address,uint256)": {
        "details": "See {IERC721-safeTransferFrom}."
      },
      "safeTransferFrom(address,address,uint256,bytes)": {
        "details": "See {IERC721-safeTransferFrom}."
      },
      "setApprovalForAll(address,bool)": {
        "details": "See {IERC721-setApprovalForAll}."
      },
      "supportsInterface(bytes4)": {
        "details": "See {IERC165-supportsInterface}."
      },
      "symbol()": {
        "details": "See {IERC721Metadata-symbol}."
      },
      "tokenURI(uint256)": {
        "details": "See {IERC721Metadata-tokenURI}."
      },
      "transferFrom(address,address,uint256)": {
        "details": "See {IERC721-transferFrom}."
      }
    },
    "version": 1
  },
  "userdoc": {
    "kind": "user",
    "methods": {},
    "version": 1
  }
}