{
  "contractName": "DNFT3",
  "abi": [
    {
      "inputs": [
        {
          "internalType": "address",
          "name": "_governanceAddress",
          "type": "address"
        }
      ],
      "stateMutability": "nonpayable",
      "type": "constructor"
    },
    {
      "anonymous": false,
      "inputs": [
        {
          "indexed": true,
          "internalType": "address",
          "name": "owner",
          "type": "address"
        },
        {
          "indexed": true,
          "internalType": "address",
          "name": "approved",
          "type": "address"
        },
        {
          "indexed": true,
          "internalType": "uint256",
          "name": "tokenId",
          "type": "uint256"
        }
      ],
      "name": "Approval",
      "type": "event"
    },
    {
      "anonymous": false,
      "inputs": [
        {
          "indexed": true,
          "internalType": "address",
          "name": "owner",
          "type": "address"
        },
        {
          "indexed": true,
          "internalType": "address",
          "name": "operator",
          "type": "address"
        },
        {
          "indexed": false,
          "internalType": "bool",
          "name": "approved",
          "type": "bool"
        }
      ],
      "name": "ApprovalForAll",
      "type": "event"
    },
    {
      "anonymous": false,
      "inputs": [
        {
          "indexed": true,
          "internalType": "address",
          "name": "from",
          "type": "address"
        },
        {
          "indexed": true,
          "internalType": "address",
          "name": "to",
          "type": "address"
        },
        {
          "indexed": true,
          "internalType": "uint256",
          "name": "tokenId",
          "type": "uint256"
        }
      ],
      "name": "Transfer",
      "type": "event"
    },
    {
      "inputs": [
        {
          "internalType": "address",
          "name": "to",
          "type": "address"
        },
        {
          "internalType": "uint256",
          "name": "tokenId",
          "type": "uint256"
        }
      ],
      "name": "approve",
      "outputs": [],
      "stateMutability": "nonpayable",
      "type": "function"
    },
    {
      "inputs": [
        {
          "internalType": "address",
          "name": "owner",
          "type": "address"
        }
      ],
      "name": "balanceOf",
      "outputs": [
        {
          "internalType": "uint256",
          "name": "",
          "type": "uint256"
        }
      ],
      "stateMutability": "view",
      "type": "function"
    },
    {
      "inputs": [
        {
          "internalType": "uint256",
          "name": "tokenId",
          "type": "uint256"
        }
      ],
      "name": "getApproved",
      "outputs": [
        {
          "internalType": "address",
          "name": "",
          "type": "address"
        }
      ],
      "stateMutability": "view",
      "type": "function"
    },
    {
      "inputs": [
        {
          "internalType": "address",
          "name": "owner",
          "type": "address"
        },
        {
          "internalType": "address",
          "name": "operator",
          "type": "address"
        }
      ],
      "name": "isApprovedForAll",
      "outputs": [
        {
          "internalType": "bool",
          "name": "",
          "type": "bool"
        }
      ],
      "stateMutability": "view",
      "type": "function"
    },
    {
      "inputs": [],
      "name": "name",
      "outputs": [
        {
          "internalType": "string",
          "name": "",
          "type": "string"
        }
      ],
      "stateMutability": "view",
      "type": "function"
    },
    {
      "inputs": [
        {
          "internalType": "uint256",
          "name": "tokenId",
          "type": "uint256"
        }
      ],
      "name": "ownerOf",
      "outputs": [
        {
          "internalType": "address",
          "name": "",
          "type": "address"
        }
      ],
      "stateMutability": "view",
      "type": "function"
    },
    {
      "inputs": [
        {
          "internalType": "address",
          "name": "from",
          "type": "address"
        },
        {
          "internalType": "address",
          "name": "to",
          "type": "address"
        },
        {
          "internalType": "uint256",
          "name": "tokenId",
          "type": "uint256"
        }
      ],
      "name": "safeTransferFrom",
      "outputs": [],
      "stateMutability": "nonpayable",
      "type": "function"
    },
    {
      "inputs": [
        {
          "internalType": "address",
          "name": "from",
          "type": "address"
        },
        {
          "internalType": "address",
          "name": "to",
          "type": "address"
        },
        {
          "internalType": "uint256",
          "name": "tokenId",
          "type": "uint256"
        },
        {
          "internalType": "bytes",
          "name": "data",
          "type": "bytes"
        }
      ],
      "name": "safeTransferFrom",
      "outputs": [],
      "stateMutability": "nonpayable",
      "type": "function"
    },
    {
      "inputs": [
        {
          "internalType": "address",
          "name": "operator",
          "type": "address"
        },
        {
          "internalType": "bool",
          "name": "approved",
          "type": "bool"
        }
      ],
      "name": "setApprovalForAll",
      "outputs": [],
      "stateMutability": "nonpayable",
      "type": "function"
    },
    {
      "inputs": [
        {
          "internalType": "bytes4",
          "name": "interfaceId",
          "type": "bytes4"
        }
      ],
      "name": "supportsInterface",
      "outputs": [
        {
          "internalType": "bool",
          "name": "",
          "type": "bool"
        }
      ],
      "stateMutability": "view",
      "type": "function"
    },
    {
      "inputs": [],
      "name": "symbol",
      "outputs": [
        {
          "internalType": "string",
          "name": "",
          "type": "string"
        }
      ],
      "stateMutability": "view",
      "type": "function"
    },
    {
      "inputs": [
        {
          "internalType": "uint256",
          "name": "tokenId",
          "type": "uint256"
        }
      ],
      "name": "tokenURI",
      "outputs": [
        {
          "internalType": "string",
          "name": "",
          "type": "string"
        }
      ],
      "stateMutability": "view",
      "type": "function"
    },
    {
      "inputs": [
        {
          "internalType": "address",
          "name": "from",
          "type": "address"
        },
        {
          "internalType": "address",
          "name": "to",
          "type": "address"
        },
        {
          "internalType": "uint256",
          "name": "tokenId",
          "type": "uint256"
        }
      ],
      "name": "transferFrom",
      "outputs": [],
      "stateMutability": "nonpayable",
      "type": "function"
    },
    {
      "inputs": [
        {
          "internalType": "address",
          "name": "_dnft2",
          "type": "address"
        }
      ],
      "name": "initialize",
      "outputs": [],
      "stateMutability": "nonpayable",
      "type": "function"
    },
    {
      "inputs": [
        {
          "internalType": "address",
          "name": "to",
          "type": "address"
        }
      ],
      "name": "mint",
      "outputs": [],
      "stateMutability": "nonpayable",
      "type": "function"
    },
    {
      "inputs": [
        {
          "internalType": "uint256",
          "name": "id",
          "type": "uint256"
        }
      ],
      "name": "burn",
      "outputs": [],
      "stateMutability": "nonpayable",
      "type": "function"
    }
  ],
  "bytecode": "0x60a06040526127106007553480156200001757600080fd5b5060405162001906380380620019068339810160408190526200003a91620000b1565b6040518060400160405280600b81526020016a4465626f6e64204e46543360a81b81525060405180604001604052806005815260200164444e46543360d81b81525081600090816200008d919062000188565b5060016200009c828262000188565b5050506001600160a01b031660805262000254565b600060208284031215620000c457600080fd5b81516001600160a01b0381168114620000dc57600080fd5b9392505050565b634e487b7160e01b600052604160045260246000fd5b600181811c908216806200010e57607f821691505b6020821081036200012f57634e487b7160e01b600052602260045260246000fd5b50919050565b601f8211156200018357600081815260208120601f850160051c810160208610156200015e5750805b601f850160051c820191505b818110156200017f578281556001016200016a565b5050505b505050565b81516001600160401b03811115620001a457620001a4620000e3565b620001bc81620001b58454620000f9565b8462000135565b602080601f831160018114620001f45760008415620001db5750858301515b600019600386901b1c1916600185901b1785556200017f565b600085815260208120601f198616915b82811015620002255788860151825594840194600190910190840162000204565b5085821015620002445787850151600019600388901b60f8161c191681555b5050505050600190811b01905550565b60805161169662000270600039600061069d01526116966000f3fe608060405234801561001057600080fd5b50600436106101005760003560e01c80636a62784211610097578063b88d4fde11610066578063b88d4fde1461021d578063c4d66de814610230578063c87b56dd14610260578063e985e9c51461027357600080fd5b80636a627842146101ce57806370a08231146101e157806395d89b4114610202578063a22cb4651461020a57600080fd5b806323b872dd116100d357806323b872dd1461018257806342842e0e1461019557806342966c68146101a85780636352211e146101bb57600080fd5b806301ffc9a71461010557806306fdde031461012d578063081812fc14610142578063095ea7b31461016d575b600080fd5b61011861011336600461125e565b6102af565b60405190151581526020015b60405180910390f35b61013561034c565b60405161012491906112cb565b6101556101503660046112de565b6103de565b6040516001600160a01b039091168152602001610124565b61018061017b366004611313565b610405565b005b61018061019036600461133d565b610559565b6101806101a336600461133d565b6105e0565b6101806101b63660046112de565b6105fb565b6101556101c93660046112de565b61062d565b6101806101dc366004611379565b610692565b6101f46101ef366004611379565b61072e565b604051908152602001610124565b6101356107c8565b610180610218366004611394565b6107d7565b61018061022b3660046113e6565b6107e6565b61018061023e366004611379565b600680546001600160a01b0319166001600160a01b0392909216919091179055565b61013561026e3660046112de565b610874565b6101186102813660046114c2565b6001600160a01b03918216600090815260056020908152604080832093909416825291909152205460ff1690565b60006001600160e01b031982167f80ac58cd00000000000000000000000000000000000000000000000000000000148061031257506001600160e01b031982167f5b5e139f00000000000000000000000000000000000000000000000000000000145b8061034657507f01ffc9a7000000000000000000000000000000000000000000000000000000006001600160e01b03198316145b92915050565b60606000805461035b906114f5565b80601f0160208091040260200160405190810160405280929190818152602001828054610387906114f5565b80156103d45780601f106103a9576101008083540402835291602001916103d4565b820191906000526020600020905b8154815290600101906020018083116103b757829003601f168201915b5050505050905090565b60006103e9826108e8565b506000908152600460205260409020546001600160a01b031690565b60006104108261062d565b9050806001600160a01b0316836001600160a01b03160361049e5760405162461bcd60e51b815260206004820152602160248201527f4552433732313a20617070726f76616c20746f2063757272656e74206f776e6560448201527f720000000000000000000000000000000000000000000000000000000000000060648201526084015b60405180910390fd5b336001600160a01b03821614806104d857506001600160a01b038116600090815260056020908152604080832033845290915290205460ff165b61054a5760405162461bcd60e51b815260206004820152603e60248201527f4552433732313a20617070726f76652063616c6c6572206973206e6f7420746f60448201527f6b656e206f776e6572206e6f7220617070726f76656420666f7220616c6c00006064820152608401610495565b610554838361094c565b505050565b61056333826109ba565b6105d55760405162461bcd60e51b815260206004820152602e60248201527f4552433732313a2063616c6c6572206973206e6f7420746f6b656e206f776e6560448201527f72206e6f7220617070726f7665640000000000000000000000000000000000006064820152608401610495565b610554838383610a39565b610554838383604051806020016040528060008152506107e6565b6106048161062d565b6001600160a01b0316336001600160a01b03161461062157600080fd5b61062a81610c06565b50565b6000818152600260205260408120546001600160a01b0316806103465760405162461bcd60e51b815260206004820152601860248201527f4552433732313a20696e76616c696420746f6b656e20494400000000000000006044820152606401610495565b336001600160a01b037f0000000000000000000000000000000000000000000000000000000000000000161461070a5760405162461bcd60e51b815260206004820152601060248201527f476f763a204e65656420726967687473000000000000000000000000000000006044820152606401610495565b61071681600854610ca1565b6008805490600061072683611545565b919050555050565b60006001600160a01b0382166107ac5760405162461bcd60e51b815260206004820152602960248201527f4552433732313a2061646472657373207a65726f206973206e6f74206120766160448201527f6c6964206f776e657200000000000000000000000000000000000000000000006064820152608401610495565b506001600160a01b031660009081526003602052604090205490565b60606001805461035b906114f5565b6107e2338383610cbb565b5050565b6107f033836109ba565b6108625760405162461bcd60e51b815260206004820152602e60248201527f4552433732313a2063616c6c6572206973206e6f7420746f6b656e206f776e6560448201527f72206e6f7220617070726f7665640000000000000000000000000000000000006064820152608401610495565b61086e84848484610d89565b50505050565b606061087f826108e8565b600061089660408051602081019091526000815290565b905060008151116108b657604051806020016040528060008152506108e1565b806108c084610e07565b6040516020016108d192919061155e565b6040516020818303038152906040525b9392505050565b6000818152600260205260409020546001600160a01b031661062a5760405162461bcd60e51b815260206004820152601860248201527f4552433732313a20696e76616c696420746f6b656e20494400000000000000006044820152606401610495565b600081815260046020526040902080546001600160a01b0319166001600160a01b03841690811790915581906109818261062d565b6001600160a01b03167f8c5be1e5ebec7d5bd14f71427d1e84f3dd0314c0f7b2291e5b200ac8c7c3b92560405160405180910390a45050565b6000806109c68361062d565b9050806001600160a01b0316846001600160a01b03161480610a0d57506001600160a01b0380821660009081526005602090815260408083209388168352929052205460ff165b80610a315750836001600160a01b0316610a26846103de565b6001600160a01b0316145b949350505050565b826001600160a01b0316610a4c8261062d565b6001600160a01b031614610ac85760405162461bcd60e51b815260206004820152602560248201527f4552433732313a207472616e736665722066726f6d20696e636f72726563742060448201527f6f776e65720000000000000000000000000000000000000000000000000000006064820152608401610495565b6001600160a01b038216610b435760405162461bcd60e51b8152602060048201526024808201527f4552433732313a207472616e7366657220746f20746865207a65726f2061646460448201527f72657373000000000000000000000000000000000000000000000000000000006064820152608401610495565b610b4e60008261094c565b6001600160a01b0383166000908152600360205260408120805460019290610b7790849061158d565b90915550506001600160a01b0382166000908152600360205260408120805460019290610ba59084906115a0565b909155505060008181526002602052604080822080546001600160a01b0319166001600160a01b0386811691821790925591518493918716917fddf252ad1be2c89b69c2b068fc378daa952ba7f163c4a11628f55a4df523b3ef91a4505050565b6000610c118261062d565b9050610c1e60008361094c565b6001600160a01b0381166000908152600360205260408120805460019290610c4790849061158d565b909155505060008281526002602052604080822080546001600160a01b0319169055518391906001600160a01b038416907fddf252ad1be2c89b69c2b068fc378daa952ba7f163c4a11628f55a4df523b3ef908390a45050565b6107e2828260405180602001604052806000815250610f3c565b816001600160a01b0316836001600160a01b031603610d1c5760405162461bcd60e51b815260206004820152601960248201527f4552433732313a20617070726f766520746f2063616c6c6572000000000000006044820152606401610495565b6001600160a01b03838116600081815260056020908152604080832094871680845294825291829020805460ff191686151590811790915591519182527f17307eab39ab6107e8899845ad3d59bd9653f200f220920489ca2b5937696c31910160405180910390a3505050565b610d94848484610a39565b610da084848484610fba565b61086e5760405162461bcd60e51b815260206004820152603260248201527f4552433732313a207472616e7366657220746f206e6f6e20455243373231526560448201527131b2b4bb32b91034b6b83632b6b2b73a32b960711b6064820152608401610495565b606081600003610e4a57505060408051808201909152600181527f3000000000000000000000000000000000000000000000000000000000000000602082015290565b8160005b8115610e745780610e5e81611545565b9150610e6d9050600a836115c9565b9150610e4e565b60008167ffffffffffffffff811115610e8f57610e8f6113d0565b6040519080825280601f01601f191660200182016040528015610eb9576020820181803683370190505b5090505b8415610a3157610ece60018361158d565b9150610edb600a866115dd565b610ee69060306115a0565b60f81b818381518110610efb57610efb6115f1565b60200101907effffffffffffffffffffffffffffffffffffffffffffffffffffffffffffff1916908160001a905350610f35600a866115c9565b9450610ebd565b610f468383611106565b610f536000848484610fba565b6105545760405162461bcd60e51b815260206004820152603260248201527f4552433732313a207472616e7366657220746f206e6f6e20455243373231526560448201527131b2b4bb32b91034b6b83632b6b2b73a32b960711b6064820152608401610495565b60006001600160a01b0384163b156110fb57604051630a85bd0160e11b81526001600160a01b0385169063150b7a0290610ffe903390899088908890600401611607565b6020604051808303816000875af1925050508015611039575060408051601f3d908101601f1916820190925261103691810190611643565b60015b6110e1573d808015611067576040519150601f19603f3d011682016040523d82523d6000602084013e61106c565b606091505b5080516000036110d95760405162461bcd60e51b815260206004820152603260248201527f4552433732313a207472616e7366657220746f206e6f6e20455243373231526560448201527131b2b4bb32b91034b6b83632b6b2b73a32b960711b6064820152608401610495565b805181602001fd5b6001600160e01b031916630a85bd0160e11b149050610a31565b506001949350505050565b6001600160a01b03821661115c5760405162461bcd60e51b815260206004820181905260248201527f4552433732313a206d696e7420746f20746865207a65726f20616464726573736044820152606401610495565b6000818152600260205260409020546001600160a01b0316156111c15760405162461bcd60e51b815260206004820152601c60248201527f4552433732313a20746f6b656e20616c7265616479206d696e746564000000006044820152606401610495565b6001600160a01b03821660009081526003602052604081208054600192906111ea9084906115a0565b909155505060008181526002602052604080822080546001600160a01b0319166001600160a01b03861690811790915590518392907fddf252ad1be2c89b69c2b068fc378daa952ba7f163c4a11628f55a4df523b3ef908290a45050565b6001600160e01b03198116811461062a57600080fd5b60006020828403121561127057600080fd5b81356108e181611248565b60005b8381101561129657818101518382015260200161127e565b50506000910152565b600081518084526112b781602086016020860161127b565b601f01601f19169290920160200192915050565b6020815260006108e1602083018461129f565b6000602082840312156112f057600080fd5b5035919050565b80356001600160a01b038116811461130e57600080fd5b919050565b6000806040838503121561132657600080fd5b61132f836112f7565b946020939093013593505050565b60008060006060848603121561135257600080fd5b61135b846112f7565b9250611369602085016112f7565b9150604084013590509250925092565b60006020828403121561138b57600080fd5b6108e1826112f7565b600080604083850312156113a757600080fd5b6113b0836112f7565b9150602083013580151581146113c557600080fd5b809150509250929050565b634e487b7160e01b600052604160045260246000fd5b600080600080608085870312156113fc57600080fd5b611405856112f7565b9350611413602086016112f7565b925060408501359150606085013567ffffffffffffffff8082111561143757600080fd5b818701915087601f83011261144b57600080fd5b81358181111561145d5761145d6113d0565b604051601f8201601f19908116603f01168101908382118183101715611485576114856113d0565b816040528281528a602084870101111561149e57600080fd5b82602086016020830137600060208483010152809550505050505092959194509250565b600080604083850312156114d557600080fd5b6114de836112f7565b91506114ec602084016112f7565b90509250929050565b600181811c9082168061150957607f821691505b60208210810361152957634e487b7160e01b600052602260045260246000fd5b50919050565b634e487b7160e01b600052601160045260246000fd5b6000600182016115575761155761152f565b5060010190565b6000835161157081846020880161127b565b83519083019061158481836020880161127b565b01949350505050565b818103818111156103465761034661152f565b808201808211156103465761034661152f565b634e487b7160e01b600052601260045260246000fd5b6000826115d8576115d86115b3565b500490565b6000826115ec576115ec6115b3565b500690565b634e487b7160e01b600052603260045260246000fd5b60006001600160a01b03808716835280861660208401525083604083015260806060830152611639608083018461129f565b9695505050505050565b60006020828403121561165557600080fd5b81516108e18161124856fea26469706673582212209da0781bce52bad13080641f538d48e5612f10166306d982f8ad51cdad2cbeff64736f6c63430008110033",
  "immutableReferences": {
    "4350": [
      {
        "length": 32,
        "start": 1693
      }
    ]
  },
  "source": "pragma solidity ^0.8.0;\n\n// SPDX-License-Identifier: apache 2.0\n/*\n    Copyright 2022 Debond Protocol <info@debond.org>\n    Licensed under the Apache License, Version 2.0 (the \"License\");\n    you may not use this file except in compliance with the License.\n    You may obtain a copy of the License at\n    http://www.apache.org/licenses/LICENSE-2.0\n    Unless required by applicable law or agreed to in writing, software\n    distributed under the License is distributed on an \"AS IS\" BASIS,\n    WITHOUT WARRANTIES OR CONDITIONS OF ANY KIND, either express or implied.\n    See the License for the specific language governing permissions and\n    limitations under the License.\n*/\n\nimport \"@openzeppelin/contracts/token/ERC721/ERC721.sol\";\nimport \"@openzeppelin/contracts/token/ERC20/IERC20.sol\";\nimport \"./RandomNumber.sol\";\nimport \"./interfaces/IDNFT.sol\";\n\ncontract DNFT3 is ERC721, IDNFT{\n\n    address dnft2;\n     address immutable governanceAddress;\n\n    constructor(address _governanceAddress) ERC721(\"Debond NFT3\", \"DNFT3\"){\n        governanceAddress = _governanceAddress;\n    }\n\n    function initialize(address _dnft2) external {\n        dnft2 = _dnft2;\n    }\n\n    uint maxNftNumber = 10000;\n    uint counter;\n\n    modifier onlyGov {\n        require(msg.sender == governanceAddress, \"Gov: Need rights\");\n        _;\n    } \n\n    function mint(address to) external onlyGov {\n        _safeMint(to, counter);\n        counter++;\n    }\n\n    function burn(uint id) external {\n        require(msg.sender == ownerOf(id));\n        _burn(id);\n    }\n\n        \n}",
  "sourcePath": "/home/fic2linux/Crypto/Debond/D-NFT/contracts/DNFT3.sol",
  "compiler": {
    "name": "solc",
    "version": "0.8.17+commit.8df45f5f.Emscripten.clang"
  },
  "schemaVersion": "3.4.9",
  "updatedAt": "2022-10-12T20:25:01.168Z",
  "devdoc": {
    "kind": "dev",
    "methods": {
      "approve(address,uint256)": {
        "details": "See {IERC721-approve}."
      },
      "balanceOf(address)": {
        "details": "See {IERC721-balanceOf}."
      },
      "getApproved(uint256)": {
        "details": "See {IERC721-getApproved}."
      },
      "isApprovedForAll(address,address)": {
        "details": "See {IERC721-isApprovedForAll}."
      },
      "name()": {
        "details": "See {IERC721Metadata-name}."
      },
      "ownerOf(uint256)": {
        "details": "See {IERC721-ownerOf}."
      },
      "safeTransferFrom(address,address,uint256)": {
        "details": "See {IERC721-safeTransferFrom}."
      },
      "safeTransferFrom(address,address,uint256,bytes)": {
        "details": "See {IERC721-safeTransferFrom}."
      },
      "setApprovalForAll(address,bool)": {
        "details": "See {IERC721-setApprovalForAll}."
      },
      "supportsInterface(bytes4)": {
        "details": "See {IERC165-supportsInterface}."
      },
      "symbol()": {
        "details": "See {IERC721Metadata-symbol}."
      },
      "tokenURI(uint256)": {
        "details": "See {IERC721Metadata-tokenURI}."
      },
      "transferFrom(address,address,uint256)": {
        "details": "See {IERC721-transferFrom}."
      }
    },
    "version": 1
  },
  "userdoc": {
    "kind": "user",
    "methods": {},
    "version": 1
  }
}