{
  "contractName": "GovernanceOwnable",
  "abi": [
    {
      "inputs": [
        {
          "internalType": "address",
          "name": "_governanceAddress",
          "type": "address"
        }
      ],
      "stateMutability": "nonpayable",
      "type": "constructor"
    },
    {
      "inputs": [
        {
          "internalType": "bool",
          "name": "_isActive",
          "type": "bool"
        }
      ],
      "name": "setIsActive",
      "outputs": [],
      "stateMutability": "nonpayable",
      "type": "function"
    },
    {
      "inputs": [],
      "name": "contractIsActive",
      "outputs": [
        {
          "internalType": "bool",
          "name": "",
          "type": "bool"
        }
      ],
      "stateMutability": "view",
      "type": "function"
    }
  ],
  "bytecode": "0x608060405234801561001057600080fd5b5060405161024c38038061024c83398101604081905261002f91610059565b600080546001600160a81b0319166001600160a01b0390921691909117600160a01b179055610089565b60006020828403121561006b57600080fd5b81516001600160a01b038116811461008257600080fd5b9392505050565b6101b4806100986000396000f3fe608060405234801561001057600080fd5b50600436106100365760003560e01c80630d60ea191461003b5780632750fc781461005c575b600080fd5b600054600160a01b900460ff16604051901515815260200160405180910390f35b61006f61006a366004610155565b610071565b005b60005473ffffffffffffffffffffffffffffffffffffffff16331461011c576040517f08c379a000000000000000000000000000000000000000000000000000000000815260206004820152602360248201527f476f7665726e616e6365205265737472696374696f6e3a204e6f7420616c6c6f60448201527f7765640000000000000000000000000000000000000000000000000000000000606482015260840160405180910390fd5b60008054911515600160a01b027fffffffffffffffffffffff00ffffffffffffffffffffffffffffffffffffffff909216919091179055565b60006020828403121561016757600080fd5b8135801515811461017757600080fd5b939250505056fea2646970667358221220612cafb2b3e67359ee274dcfeec71bec32d4d242b28f415426642bc4101362b064736f6c63430008110033",
  "immutableReferences": {},
  "source": "pragma solidity ^0.8.0;\n\n// SPDX-License-Identifier: apache 2.0\n/*\n    Copyright 2022 Debond Protocol <info@debond.org>\n    Licensed under the Apache License, Version 2.0 (the \"License\");\n    you may not use this file except in compliance with the License.\n    You may obtain a copy of the License at\n    http://www.apache.org/licenses/LICENSE-2.0\n    Unless required by applicable law or agreed to in writing, software\n    distributed under the License is distributed on an \"AS IS\" BASIS,\n    WITHOUT WARRANTIES OR CONDITIONS OF ANY KIND, either express or implied.\n    See the License for the specific language governing permissions and\n    limitations under the License.\n*/\n\nimport \"../interfaces/IActivable.sol\";\nimport \"../interfaces/IGovernanceAddressUpdatable.sol\";\n\ncontract GovernanceOwnable is IActivable {\n    address governanceAddress;\n    bool private isActive;\n\n    constructor(address _governanceAddress) {\n        governanceAddress = _governanceAddress;\n        isActive = true;\n    }\n\n    modifier onlyGovernance() {\n        require(msg.sender == governanceAddress, \"Governance Restriction: Not allowed\");\n        _;\n    }\n\n    modifier _onlyIsActive() {\n        require(isActive, \"Contract Is Not Active\");\n        _;\n    }\n\n    function setIsActive(bool _isActive) external onlyGovernance {\n        isActive = _isActive;\n    }\n\n    function contractIsActive() public view returns(bool) {\n        return isActive;\n    }\n}\n",
  "sourcePath": "@debond-protocol/debond-governance-contracts/utils/GovernanceOwnable.sol",
  "compiler": {
    "name": "solc",
    "version": "0.8.17+commit.8df45f5f.Emscripten.clang"
  },
  "schemaVersion": "3.4.9",
  "updatedAt": "2022-10-12T20:25:01.142Z",
  "devdoc": {
    "kind": "dev",
    "methods": {},
    "version": 1
  },
  "userdoc": {
    "kind": "user",
    "methods": {},
    "version": 1
  }
}