{
  "contractName": "governance",
  "abi": [
    {
      "inputs": [
        {
          "internalType": "address",
          "name": "_debondNFTTokenAddress",
          "type": "address"
        },
        {
          "internalType": "address",
          "name": "_owner",
          "type": "address"
        }
      ],
      "stateMutability": "nonpayable",
      "type": "constructor"
    },
    {
      "inputs": [
        {
          "internalType": "address",
          "name": "_dnft0",
          "type": "address"
        },
        {
          "internalType": "address",
          "name": "_dnft1",
          "type": "address"
        },
        {
          "internalType": "address",
          "name": "_dnft2",
          "type": "address"
        },
        {
          "internalType": "address",
          "name": "_dnft3",
          "type": "address"
        }
      ],
      "name": "initialize",
      "outputs": [],
      "stateMutability": "nonpayable",
      "type": "function"
    },
    {
      "inputs": [
        {
          "internalType": "address",
          "name": "_to",
          "type": "address"
        },
        {
          "internalType": "uint256[]",
          "name": "ids",
          "type": "uint256[]"
        },
        {
          "internalType": "uint256",
          "name": "typeToBurn",
          "type": "uint256"
        }
      ],
      "name": "compose",
      "outputs": [],
      "stateMutability": "nonpayable",
      "type": "function"
    },
    {
      "inputs": [
        {
          "internalType": "uint256[]",
          "name": "ids",
          "type": "uint256[]"
        },
        {
          "internalType": "uint256",
          "name": "typeToStack",
          "type": "uint256"
        }
      ],
      "name": "stake",
      "outputs": [],
      "stateMutability": "nonpayable",
      "type": "function"
    }
  ],
  "bytecode": "0x60c060405234801561001057600080fd5b5060405161064938038061064983398101604081905261002f91610062565b6001600160a01b039182166080521660a052610095565b80516001600160a01b038116811461005d57600080fd5b919050565b6000806040838503121561007557600080fd5b61007e83610046565b915061008c60208401610046565b90509250929050565b60805160a0516105926100b760003960006101ed0152600050506105926000f3fe608060405234801561001057600080fd5b50600436106100415760003560e01c8063857b767b14610046578063c0d203d61461005a578063f8c8765e1461006d575b600080fd5b6100586100543660046103df565b5050565b005b610058610068366004610440565b610080565b61005861007b366004610497565b6101e2565b8151600a1461008e57600080fd5b60005b6001835161009f9190610501565b8110156101465760008281526004602052604090205483516001600160a01b03909116906342966c68908590849081106100db576100db61051a565b60200260200101516040518263ffffffff1660e01b815260040161010191815260200190565b600060405180830381600087803b15801561011b57600080fd5b505af115801561012f573d6000803e3d6000fd5b50505050808061013e90610530565b915050610091565b5060046000610156836001610549565b8152602081019190915260409081016000205490517f6a6278420000000000000000000000000000000000000000000000000000000081526001600160a01b03858116600483015290911690636a62784290602401600060405180830381600087803b1580156101c557600080fd5b505af11580156101d9573d6000803e3d6000fd5b50505050505050565b336001600160a01b037f0000000000000000000000000000000000000000000000000000000000000000161461021757600080fd5b600080546001600160a01b039586167fffffffffffffffffffffffff0000000000000000000000000000000000000000918216811783556001805496881696831687179055600280549588169583168617905560038054949097169382168417875560046020527f17ef568e3e12ab5b9c7254a8d58478811de00f9e6eb34345acd53bf8fd09d3ec8054831690911790557fabd6e7cb50984ff9c2f3e18a2660c3353dadf4e3291deeb275dae2cd1e44fe05805482169095179094557f91da3fd0782e51c6b3986e9e672fd566868e71f3dbc2d6c2cd6fbb3e361af2a7805485169093179092559290527f2e174c10e159ea99b867ce3205125c24a42d128804e4070ed6fcc8cc98166aa080549091169091179055565b634e487b7160e01b600052604160045260246000fd5b600082601f83011261035557600080fd5b8135602067ffffffffffffffff808311156103725761037261032e565b8260051b604051601f19603f830116810181811084821117156103975761039761032e565b6040529384528581018301938381019250878511156103b557600080fd5b83870191505b848210156103d4578135835291830191908301906103bb565b979650505050505050565b600080604083850312156103f257600080fd5b823567ffffffffffffffff81111561040957600080fd5b61041585828601610344565b95602094909401359450505050565b80356001600160a01b038116811461043b57600080fd5b919050565b60008060006060848603121561045557600080fd5b61045e84610424565b9250602084013567ffffffffffffffff81111561047a57600080fd5b61048686828701610344565b925050604084013590509250925092565b600080600080608085870312156104ad57600080fd5b6104b685610424565b93506104c460208601610424565b92506104d260408601610424565b91506104e060608601610424565b905092959194509250565b634e487b7160e01b600052601160045260246000fd5b81810381811115610514576105146104eb565b92915050565b634e487b7160e01b600052603260045260246000fd5b600060018201610542576105426104eb565b5060010190565b80820180821115610514576105146104eb56fea26469706673582212201f760ce759e6b4bd8f40b95930dcecc3d7663e322d35bedf462e2e8f19d71e2164736f6c63430008110033",
  "immutableReferences": {
    "4601": [
      {
        "length": 32,
        "start": 493
      }
    ]
  },
  "source": "pragma solidity ^0.8.0;\n\n// SPDX-License-Identifier: apache 2.0\n/*\n    Copyright 2022 Debond Protocol <info@debond.org>\n    Licensed under the Apache License, Version 2.0 (the \"License\");\n    you may not use this file except in compliance with the License.\n    You may obtain a copy of the License at\n    http://www.apache.org/licenses/LICENSE-2.0\n    Unless required by applicable law or agreed to in writing, software\n    distributed under the License is distributed on an \"AS IS\" BASIS,\n    WITHOUT WARRANTIES OR CONDITIONS OF ANY KIND, either express or implied.\n    See the License for the specific language governing permissions and\n    limitations under the License.\n*/\n\nimport \"@openzeppelin/contracts/token/ERC721/ERC721.sol\";\nimport \"@openzeppelin/contracts/token/ERC20/IERC20.sol\";\nimport \"./RandomNumber.sol\";\nimport \"./interfaces/IDNFT.sol\";\n\n\n\n\ncontract governance{\n\n    \n    address dnft0;\n    address dnft1;\n    address dnft2;\n    address dnft3;\n    //address immutable owner;\n    address immutable debondNFTTokenAddress;\n    address immutable owner;\n\n    mapping(uint=> address) tier;\n\n    constructor(address _debondNFTTokenAddress, address _owner)  {\n        debondNFTTokenAddress = _debondNFTTokenAddress;\n        owner = _owner;\n        \n\n    }\n    function initialize(address _dnft0, address _dnft1, address _dnft2, address _dnft3 ) external {\n        require(msg.sender == owner);\n        dnft0 = _dnft0;\n        dnft1 = _dnft1;\n        dnft2 = _dnft2;\n        dnft3 = _dnft3;\n        tier[0] = _dnft0; \n        tier[1] = _dnft1; \n        tier[2] = _dnft2; \n        tier[3] = _dnft3; \n    }\n\n\n    function compose (address _to, uint[] memory ids, uint typeToBurn) external {\n        require(ids.length == 10);\n        for (uint i; i < ids.length - 1; i++) {\n            IDNFT(tier[typeToBurn]).burn(ids[i]);\n        }\n        IDNFT(tier[typeToBurn +1]).mint(_to);\n    }\n\n    function stake(uint[] memory ids, uint typeToStack) external {\n        \n    }\n\n\n\n\n\n\n\n        \n}",
  "sourcePath": "/home/fic2linux/Crypto/Debond/D-NFT/contracts/governance.sol",
  "compiler": {
    "name": "solc",
    "version": "0.8.17+commit.8df45f5f.Emscripten.clang"
  },
  "schemaVersion": "3.4.9",
  "updatedAt": "2022-10-12T20:25:01.172Z",
  "devdoc": {
    "kind": "dev",
    "methods": {},
    "version": 1
  },
  "userdoc": {
    "kind": "user",
    "methods": {},
    "version": 1
  }
}