{
  "contractName": "PseudoRandom",
  "abi": [
    {
      "inputs": [
        {
          "internalType": "uint256",
          "name": "_NftNumber",
          "type": "uint256"
        }
      ],
      "stateMutability": "nonpayable",
      "type": "constructor"
    },
    {
      "inputs": [],
      "name": "pickRandomNumber",
      "outputs": [
        {
          "internalType": "uint256",
          "name": "index",
          "type": "uint256"
        }
      ],
      "stateMutability": "view",
      "type": "function"
    }
  ],
  "bytecode": "0x608060405234801561001057600080fd5b5060405161016038038061016083398101604081905261002f91610037565b600055610050565b60006020828403121561004957600080fd5b5051919050565b6101018061005f6000396000f3fe6080604052348015600f57600080fd5b506004361060285760003560e01c8063a2acb2eb14602d575b600080fd5b60336045565b60405190815260200160405180910390f35b60006064608460005460408051446020808301919091524282840152606080830194909452825180830390940184526080909101909152815191012090565b608c91906091565b905090565b60008260c6577f4e487b7100000000000000000000000000000000000000000000000000000000600052601260045260246000fd5b50069056fea26469706673582212202475f18c6a64193d82880a99f0abb46417bc6f5f2ec5e731c43eca18ed0a593764736f6c63430008110033",
  "immutableReferences": {},
  "source": "pragma solidity 0.8.17;\n\nimport \"./interfaces/IPseudoRandom.sol\" ;\ncontract PseudoRandom is IPseudoRandom {\n\nuint NftNumber;\n\nconstructor(uint _NftNumber)  {\n        NftNumber = _NftNumber;\n    }\n\n\n    function random() private view returns (uint) {\n            //counter++;\n            return uint(keccak256(abi.encodePacked(block.difficulty, block.timestamp, NftNumber)));\n    }\n\n    function pickRandomNumber() public view returns (uint index) {\n        index = random() % 100;\n    }\n}",
  "sourcePath": "/home/fic2linux/Crypto/Debond/D-NFT/contracts/PseudoRandom.sol",
  "compiler": {
    "name": "solc",
    "version": "0.8.17+commit.8df45f5f.Emscripten.clang"
  },
  "schemaVersion": "3.4.9",
  "updatedAt": "2022-10-10T12:28:08.135Z",
  "devdoc": {
    "kind": "dev",
    "methods": {},
    "version": 1
  },
  "userdoc": {
    "kind": "user",
    "methods": {},
    "version": 1
  }
}