{
  "contractName": "RandomNumber",
  "abi": [
    {
      "inputs": [],
      "stateMutability": "nonpayable",
      "type": "constructor"
    },
    {
      "inputs": [],
      "name": "randomResult",
      "outputs": [
        {
          "internalType": "uint256",
          "name": "",
          "type": "uint256"
        }
      ],
      "stateMutability": "view",
      "type": "function"
    },
    {
      "inputs": [
        {
          "internalType": "bytes32",
          "name": "requestId",
          "type": "bytes32"
        },
        {
          "internalType": "uint256",
          "name": "randomness",
          "type": "uint256"
        }
      ],
      "name": "rawFulfillRandomness",
      "outputs": [],
      "stateMutability": "nonpayable",
      "type": "function"
    },
    {
      "inputs": [],
      "name": "getRandomNumber",
      "outputs": [
        {
          "internalType": "bytes32",
          "name": "requestId",
          "type": "bytes32"
        }
      ],
      "stateMutability": "nonpayable",
      "type": "function"
    }
  ],
  "bytecode": "0x60c060405234801561001057600080fd5b50738c7382f9d8f56b33781fe506e897a4f1e2d1725560a05273326c977e6efc84e512bb9c30f76e30c160ed06fb6080527f6e75b569a01ef56d18cab6a8e71e6600d6ce853834d4a5748b720d06f878b3a4600155655af3107a400060025560805160a0516105186100a16000396000818160960152610289015260008181610158015261024d01526105186000f3fe608060405234801561001057600080fd5b50600436106100415760003560e01c806342619f661461004657806394985ddd14610061578063dbdff2c114610076575b600080fd5b61004f60035481565b60405190815260200160405180910390f35b61007461006f3660046103d1565b61007e565b005b61004f61010e565b3373ffffffffffffffffffffffffffffffffffffffff7f000000000000000000000000000000000000000000000000000000000000000016146101085760405162461bcd60e51b815260206004820152601f60248201527f4f6e6c7920565246436f6f7264696e61746f722063616e2066756c66696c6c0060448201526064015b60405180910390fd5b60035550565b6002546040517f70a082310000000000000000000000000000000000000000000000000000000081523060048201526000919073ffffffffffffffffffffffffffffffffffffffff7f000000000000000000000000000000000000000000000000000000000000000016906370a0823190602401602060405180830381865afa15801561019f573d6000803e3d6000fd5b505050506040513d601f19601f820116820180604052508101906101c391906103f3565b116102365760405162461bcd60e51b815260206004820152602b60248201527f4e6f7420656e6f756768204c494e4b202d2066696c6c20636f6e74726163742060448201527f776974682066617563657400000000000000000000000000000000000000000060648201526084016100ff565b610244600154600254610249565b905090565b60007f000000000000000000000000000000000000000000000000000000000000000073ffffffffffffffffffffffffffffffffffffffff16634000aea07f0000000000000000000000000000000000000000000000000000000000000000848660006040516020016102c6929190918252602082015260400190565b6040516020818303038152906040526040518463ffffffff1660e01b81526004016102f39392919061040c565b6020604051808303816000875af1158015610312573d6000803e3d6000fd5b505050506040513d601f19601f82011682018060405250810190610336919061047f565b5060008381526020818152604080832054815180840188905280830185905230606082015260808082018390528351808303909101815260a0909101909252815191830191909120868452929091526103909060016104a8565b600085815260208181526040918290209290925580518083018790528082019390935280518084038201815260609093019052815191012090505b92915050565b600080604083850312156103e457600080fd5b50508035926020909101359150565b60006020828403121561040557600080fd5b5051919050565b73ffffffffffffffffffffffffffffffffffffffff8416815260006020848184015260606040840152835180606085015260005b8181101561045c57858101830151858201608001528201610440565b506000608082860101526080601f19601f83011685010192505050949350505050565b60006020828403121561049157600080fd5b815180151581146104a157600080fd5b9392505050565b808201808211156103cb577f4e487b7100000000000000000000000000000000000000000000000000000000600052601160045260246000fdfea2646970667358221220eabd039808054a85c6bcaef44998edcc6b8a413597c56c7e9fb285c321f3ce8364736f6c63430008110033",
  "immutableReferences": {
    "73": [
      {
        "length": 32,
        "start": 344
      },
      {
        "length": 32,
        "start": 589
      }
    ],
    "75": [
      {
        "length": 32,
        "start": 150
      },
      {
        "length": 32,
        "start": 649
      }
    ]
  },
  "source": "// SPDX-License-Identifier: MIT\npragma solidity 0.8.17;\n\nimport \"@chainlink/contracts/src/v0.8/VRFConsumerBase.sol\";\n\ncontract RandomNumber is VRFConsumerBase {\n    bytes32 internal keyHash;\n    uint256 internal fee;\n    \n    uint256 public randomResult;\n    \n    /**\n     * Constructor inherits VRFConsumerBase\n     * \n     * Network: Polygon (Matic) Mumbai Testnet\n     * Chainlink VRF Coordinator address: 0x8C7382F9D8f56b33781fE506E897a4F1e2d17255\n     * LINK token address:                0x326C977E6efc84E512bB9C30f76E30c160eD06FB\n     * Key Hash: 0x6e75b569a01ef56d18cab6a8e71e6600d6ce853834d4a5748b720d06f878b3a4\n     */\n    constructor() \n        VRFConsumerBase(\n            0x8C7382F9D8f56b33781fE506E897a4F1e2d17255, // VRF Coordinator\n            0x326C977E6efc84E512bB9C30f76E30c160eD06FB  // LINK Token\n        ) public\n    {\n        keyHash = 0x6e75b569a01ef56d18cab6a8e71e6600d6ce853834d4a5748b720d06f878b3a4;\n        fee = 0.0001 * 10 ** 18; // 0.0001 LINK\n    }\n    \n    /** \n     * Requests randomness \n     */\n    function getRandomNumber() public returns (bytes32 requestId) {\n        require(LINK.balanceOf(address(this)) > fee, \"Not enough LINK - fill contract with faucet\");\n        return requestRandomness(keyHash, fee);\n    }\n\n    /**\n     * Callback function used by VRF Coordinator\n     */\n    function fulfillRandomness(bytes32 requestId, uint256 randomness) internal override {\n        randomResult = randomness;\n    }\n}",
  "sourcePath": "/home/fic2linux/Crypto/Debond/D-NFT/contracts/RandomNumber.sol",
  "compiler": {
    "name": "solc",
    "version": "0.8.17+commit.8df45f5f.Emscripten.clang"
  },
  "schemaVersion": "3.4.9",
  "updatedAt": "2022-10-12T20:25:01.171Z",
  "devdoc": {
    "kind": "dev",
    "methods": {},
    "version": 1
  },
  "userdoc": {
    "kind": "user",
    "methods": {
      "constructor": {
        "notice": "Constructor inherits VRFConsumerBase  Network: Polygon (Matic) Mumbai Testnet Chainlink VRF Coordinator address: 0x8C7382F9D8f56b33781fE506E897a4F1e2d17255 LINK token address:                0x326C977E6efc84E512bB9C30f76E30c160eD06FB Key Hash: 0x6e75b569a01ef56d18cab6a8e71e6600d6ce853834d4a5748b720d06f878b3a4"
      },
      "getRandomNumber()": {
        "notice": "Requests randomness "
      }
    },
    "version": 1
  }
}